:020000040000fa
:10000000f0ff0320193b00007b420000bb470000cb
:100010003b4a00005b4b00006f4f000000000000f7
:10002000000000000000000000000000e15200009d
:10003000a349000000000000214400001951000005
:100040009b5100009b5100009b5100009b51000000
:100050009b5100009b5100009b5100009b510000f0
:100060009b5100009b5100009b5100009b510000e0
:100070009b5100009b5100009b5100009b510000d0
:100080009b5100009b5100009b5100009b510000c0
:100090009b5100009b5100009b5100009b510000b0
:1000a0009b5100009b5100009b5100009b510000a0
:1000b0009b5100009b5100009b5100009b51000090
:1000c0009b5100009b5100009b5100009b51000080
:1000d0009b5100009b5100009b5100009b51000070
:1000e0009b5100009b510000000000000000000038
:1000f000000000009b5100009b5100009b5100003c
:100100009b5100009b5100009b5100009b5100003f
:100110009b5100009b5100005d4600005d460000c1
:100120005d4600005d4600009b5100009b510000b1
:100130009b5100009b5100009b5100009b5100000f
:100140009b5100009b5100009b5100009b510000ff
:100150009b5100009b5100009b5100009b510000ef
:100160009b5100009b5100009b5100009b510000df
:100170009b5100009b5100009b5100000d2a000084
:100180009b5100009b5100009b5100009b510000bf
:100190009b5100009b5100009b5100009b510000af
:1001a0009b5100009b5100009b5100009b5100009f
:1001b0009b5100009b5100009b5100009b5100008f
:1001c0009b5100009b5100009b5100009b5100007f
:1001d0009b5100009b5100009b5100009b5100006f
:1001e0009b5100009b5100009b5100009b5100005f
:1001f0009b5100009b5100009b5100009b5100004f
:100200009b5100009b5100009b5100009b5100003e
:100210009b5100009b5100009b5100009b5100002e
:100220009b5100009b5100009b5100009b5100001e
:100230009b5100009b5100009b5100009b5100000e
:100240009b5100009b5100009b5100009b510000fe
:100250009b5100009b5100009b5100009b510000ee
:040260009b510000ae
:020000040000fa
:10026400f8b500bff8bc08bc9e467047814b00003f
:10027400f8b500bff8bc08bc9e4670475d4b000053
:020000040000fa
:08028400e81000000100000079
:020000040000fa
:04028c0020092c0019
:020000040000fa
:100290002de9f04f2ded028bd2e9008997b0cde921
:1002a0000c138b6808930b690f90d1e900b6149377
:1002b000cd68002200234046494604f01ffd40b9a6
:1002c0001bf0040f32d11bf00803059330d020231c
:1002d00003e089f0004399462d232b70089b03f11e
:1002e000ff3a012305934c4929f0004300208b423b
:1002f00008bf80451fd10d9b413b192b059b94bf27
:10030000464947492b44184605f0f6fa284605f0b9
:10031000a9f9cdf800b00246089b0f98294603f0d2
:10032000c5fc17b0bdec028bbde8f08f2b23d4e7e2
:10033000ddf820a0d7e7994208bf404509d20d9bc0
:10034000413b192b059b94bf364937492b4418462e
:10035000dae7002200234046494604f0effd9fed16
:100360002c7b8ded027b48b300240d9805f08bfab1
:10037000002ec3b20993c0f2d781672b5ad1002e49
:1003800008bf0126231d02dbb442c0f2c6816527e7
:1003900061e09ded067b8ded027b01340022234b55
:1003a000dde9020102f0ecf842464b46cde90601d8
:1003b00004f088fc0028ecd000271fe00446ede79d
:1003c00014f5967f11da87b90022194b4046494649
:1003d00002f0d6f8002280468946154bdde902017d
:1003e00002f0cef8cde902010127dde90201002289
:1003f0000e4b01f038facde90201013cdde90223a0
:100400004046494604f07afc0028d9d1ade700bf48
:10041000000000000000f03f0000f07f685800007e
:100420006c58000070580000745800000000244010
:1004300000005043099f662f06f101060bd1002ce6
:1004400004da9fedbd7b8ded027b0024099b672bb9
:1004500018bf361966279ded027bcde906898ded23
:100460000a7b00230e93dde90a23dde9060101f092
:10047000faf941ec100b02f093fc51ec100bb0eeca
:10048000408af0ee608a04f0b3fab0ee480af0ee6b
:10049000680a069b1093079b159083f00043119305
:1004a0009ded0a1b9ded102b04f04cfe53ec102b20
:1004b00083f000430793dde90a01a34b8ded060aa3
:1004c000002201f0d0f90e9b01339e42cde90a01d2
:1004d0000e93c8d100229d4b02f052f8cde90a01db
:1004e00002460b46dde9060104f008fc002840f056
:1004f0008180dde90a23dde9060104f01ffd10b16a
:10050000159bda0776d5dde90a234046494601f016
:100510008bf80022cde906018b4bdde9020102f0e8
:100520002ff8dde90623cde90a0104f091fb00284c
:1005300065d0662f04f1010465d10136a146a9eb0f
:1005400006034ff00008059e1093cdf80880109b1d
:10055000994540f08180029b002b00f0c880a819cb
:100560000022652f027029d1149b1499013b9442fb
:10057000ea54c1f1030ebcbf644201220a21002cdf
:1005800040f0bc800eeb030cbcf1000f00f3b68012
:10059000002a03f1ff3114bf2d222b226a540d9a39
:1005a000023b413a192a05eb030198bf45279e42b9
:1005b0000f70aaf1020a01da05f09ef90bf00303ad
:1005c000022b7ff4a3aebaf1000f7ff79fae28464f
:1005d00005f048f805eb0a03059a824240f399803a
:1005e000059b2b4418465246302105f0c3f80023e2
:1005f00008938be69fed527b8ded0a7b83e79deda3
:10060000027b8ded0a7b652f14bfa1464ff00009d8
:1006100095e7029a52b9b9f1000f07da0e992e2226
:100620006a54012201360af1ff3a029205eb0801f1
:10063000aa193144302001e002f8010b9142fbd1ac
:1006400008eb06023033aaeb080808f1ff3a561c03
:10065000ab544ff0000828e00c9b0e961b69053b3d
:10066000b3427ff678afdde90a23dde9060101f048
:10067000faf841ec100b02f093fb51ec100bb0eeca
:10068000408af0ee608a04f0b3f90bf010020928fa
:100690000346a8bf09230243bbd1099a672ab8d1f0
:1006a000b9f1000fc2da08f10108069b1293079b0b
:1006b000b0ee480af0ee680a83f0004313939ded14
:1006c0000a1b9ded122b04f03dfd53ec102b83f023
:1006d00000430793dde90a0100221b4b8ded060a5a
:1006e00001f0c1f809f1ff39cde90a012fe71bf04c
:1006f000100f1ebf2e23ab55013630e7b4fbf1fcc3
:10070000013b01fb1c443034ec540af1ff3a6446cf
:1007100035e72a5c1a5401385ee7002cbff69aae22
:10072000662788e606262de6099b672bfad01f462a
:10073000062680e6aff30080000000000000f03fd6
:1007400000000000000000000000244000001440f1
:020000040000fa
:100750002de9f04f95b0cde912030b68089392eda7
:10076000007b4b680a938b6809930b690d93cc68e7
:100770000022002351ec170b8ded047b04f0befa30
:1007800040b9089b580734d4089b13f0080732d0af
:10079000202306e0dde9042181f00043cde90423b4
:1007a0002d232370099b01275a1edde90403dff87e
:1007b000f8b223f000414ff0000a594508bf5045f8
:1007c0001bd1139b413b192b04eb070094bfb0498d
:1007d000b04905f091f8af4804f044ff089b00933e
:1007e0000246099b1298214603f060fa15b0bde855
:1007f000f08f2b23d5e7099ad7e7139b8b45a3f1fd
:10080000410308bf82450b9309d2192b04eb070063
:1008100094bfa149a14905f06ff8a048dce7302159
:10082000e1550b997b1c1a2934bf58217821e154da
:10083000931e079300220023dde90401023704f030
:100840007dfb002800f07b819fed8f7b8ded027b8f
:1008500000250a9bdde90289002bdde904abb8bf66
:1008600018230e93002642464b465046594600f048
:10087000faff41ec100b02f093fa42464b4651ec62
:10088000100b8ded100b01f07bfe02460b4650461f
:10089000594605f063f8824b82468b4640464946ee
:1008a000002201f06dfe731c0c930a9b002b804606
:1008b000894606da002200235046594604f03efbe2
:1008c00028b90e9bb34200f3408101330c93002200
:1008d000744b4046494601f053fe80468946024625
:1008e0000b465046594604f009fa002840f02f8183
:1008f00042464b465046594604f020fb30b1dde9f4
:10090000100104f075f8c10740f1218142464b46c1
:10091000dde9040100f088fecde90401dde90421f0
:1009200021f00043604900208b4208bf82423ff41f
:1009300048af4ff000083e46c246c1460d9b053bfe
:10094000b342b34633d9dde90223dde9040100f007
:100950008aff41ec100b02f023fa51ec100b8dede5
:100960000e0b04f045f8002840f0f680b9f1000fb6
:1009700000f0f28008f10108dde90223dde90e0153
:1009800001f0fefd02460b46dde9040104f0e6ff3e
:10099000434bcde904010022dde9020101f0f0fd45
:1009a0000c9b09f101094b45cde90201c6d1baf111
:1009b000000f1ed1b8f1000f00f015810a9b002b2b
:1009c00040f31181089bda0700f10d81a3192e2253
:1009d0001a7008eb06022244302100bf03f8011f01
:1009e0009a42fbd1079b46446fea0808434401360c
:1009f00007930d9b0d990022a019013b95420270af
:100a0000b8bf6d42e254c1f1020eb8bf01224ff0ef
:100a10000a08002d40f0d7800eeb030cbcf1010f4b
:100a200000f0d180002a03f1ff3114bf2d222b22c8
:100a300062540b9a023b1a2a04eb030134bf502282
:100a400070229e420a7001da04f056ff089b03f000
:100a50000303022b14d1079ba3f10208b8f1000f86
:100a60000edd204604f0fefd04eb0803b84280f2e0
:100a7000b68042463021e01904f07cfe0023099341
:100a80002046a9e6aff30080000000000000f03f20
:100a9000585800005c58000060580000645800007e
:100aa0000000b03f000020400000f07fcde9028947
:100ab0000135dde902231046194600f0b5fd8046f8
:100ac000894602460b46dde9040104f017f90028c7
:100ad000ecd0dff82cb1dff82c914ff0000a4ff08a
:100ae0000008dde90223dde9040104f007f900282c
:100af0003ff4afae52465b46dde9020101f040fd36
:100b00000022002304f01afa78b142464b46dde990
:100b1000020101f035fd4246cde902014b46dde917
:100b2000040101f02dfdcde90401dde90201524689
:100b30005b4601f025fd013dcde90201d1e79fedc6
:100b40002e7b05468ded027bb3e70c9e8be64ff0c6
:100b500000084ff00009d9e6baf1000f0bd1b9f146
:100b6000000f08d02e2304f80b30079b013b013601
:100b700007934ff0010a04eb0803a2193344302114
:100b800002e000bf02f8011b9a42fbd1079b06eb73
:100b9000080ba3eb08080b9b0928d4bf3030573053
:100ba000192b06d840f02003613b192b01d804f023
:100bb00071fe08f1ff330bf1010604f80b000793f7
:100bc0004ff00008d8e60799b5fbf8fc013b08fb9d
:100bd0001c5530350139e5540791654619e7225c0b
:100be0001a54013842e7089bdb067ff502af2e233b
:100bf000a3550136fde600bf000000000000f03ff5
:080c00000000e03f000050433a
:020000040000fa
:100c0800aa4b1b68002b40f01d822de9f04fbbb0aa
:100c1800a74b1c6814b1dff8d4b2a2e0a54911f8bb
:100c2800012fa54802f030ff38b1a14b1c68002cf9
:100c3800f1d101203bb0bde8f08fa04b1b78002b11
:100c4800f3d104f031fe012803d89c4b01221a701d
:100c5800ebe704f023fe9a4903f0aafbf5e700232b
:100c68006375984e04f1120803273a4631684046e6
:100c780004f0e0fa002800f0e3810c365e45f4d178
:100c88000023238269e00d283ad00a2838d00828a2
:100c980000f06c817f2800f09c811b2800f0b9814e
:100ca800e26904f12008a2eb08034f2b00f3bb8193
:100cb800a369d31a00f0b381d01a00bf12f8011c3f
:100cc80002f801198242f9d1e269511ce16100215f
:100cd8005170a26901327c4904f1720004f050fca1
:100ce800214601f8717f336828469847a3691f7029
:100cf800a3690133a361e26993422ed9e3612ce031
:100d080004f1200ae369534555d033686f492846f2
:100d18009847e36900211970c4f818a0c4f81ca00a
:100d280020220deb020004f021fd67680497512290
:100d3800514610a804f0e2fd082208a910a803f003
:100d4800b3f8039000283bd123681b6860493846f4
:100d5800984733685f4928469847a468002c3ff4b1
:100d680068af26686568f368284698470028f4d075
:100d78003369284698470746b4f91030002b82d0cb
:100d8800e218907401331db22582032d3ff467af3a
:100d9800022de2dde668b3689d42ded1316804f1d8
:100da800120004f07dfc18b9736831462046984754
:100db80000232382d1e73368474928469847cce780
:100dc800039b002b05dc23681b684449049898475b
:100dd800bfe7d4f8cc30d4f8d070bb4236d07a68ac
:100de800c4f8d0201360d4f8cc30d4f8d0205a609e
:100df8005122514607f1080004f080fdd4f8cc30a8
:100e08005bb33b60d4f8d0307b601f60d4f8cc3043
:100e18005f60c4f8cc700023c4f8d430ddf82090ab
:100e28002f4f07f124083968484604f039fcd8b137
:100e38000c374745f7d12b4b03f11802d8330593ec
:100e48000696cdf81ca0a246914656e00022c4f8aa
:100e5800cc20c4f8d0201f46cae7c4f8cc70c4f828
:100e6800d0703f607f60d6e7039b082b06dd2368c0
:100e78005b6808221c49049898476ae77b6808aab7
:100e880003992046984764e75446069edaf80030ee
:100e98005b6808221449049898475ae75446069e06
:100ea8007b6808aa03995046984752e7f0ac00209f
:100eb800d8ac0020e8ac00201057000061ad00203d
:100ec800b02600003c4a0000982700003038000097
:100ed800d426000074270000dc52000044270000dc
:100ee8008c520000f4a900200c270000844a00005e
:100ef80009f11809059b4b4532d04c4659f8146c3a
:100f0800002ef5d059f8087c9fb15122079925a8e1
:100f180004f0f4fc59f8043c0093512325aa5146e7
:100f28003046b847f8b9082208a925a802f0bcff3e
:100f38000390039b082ba7dc54f8147c54f8184c36
:100f4800002cd5d0ddf8208000263968404604f012
:100f5800a7fb0028a2d001360c37a642f5d1c7e777
:100f68005446069e2fe75446069ef2e6a16904f110
:100f7800200399427ff6f1aee36999421ed24a1ed8
:100f88005b1a06d0581e0144507802f8010b8a42b9
:100f9800fad1a269013aa261e269511ee161002118
:100fa80002f8011c04f17107a2692749384604f0c8
:100fb800e7fa3368394628469847cee63368234926
:100fc80028469847a369013ba361e369013be361b4
:100fd800c3e6e369a26993427ff6bfae511c5b1a70
:100fe80005d0d018517802f8011b9042fad1e26975
:100ff800511ee161002102f8011c04f17107a26988
:101008001349384604f0bcfa3368394628469847ed
:10101800a3e64ff01b03a374012323829de600235c
:1010280084f872305ce633680a4928469847c4f861
:101038001880c4f81c8033680749284698478ce60e
:10104800e660a7e6012070477827000084270000a3
:0c1058008c270000a02700007427000077
:020000040000fa
:101064002de9f041aeb006461546059100270599d5
:101074000b78002b00f0fa8000244ff0ff33cde909
:1010840009430eab0c9380230b940d930b5d0bb1b2
:10109400252b26d134b12246304604f0e1f8059bd5
:1010a40023440593059b1a78252a40f0d78003f141
:1010b4000108cdf81480059803782b2b1ad025d875
:1010c400202b1bd0232b1dd02a2b27d003f020fd4f
:1010d4000b90059b1a78303a092a2ed801330593d0
:1010e400f7e70134d2e7099b43f001030130099388
:1010f4000590e0e7099b43f00403f7e7099b43f0fd
:101104000803f3e7099b43f01003efe72d2bead024
:10111400302bd9d1099b43f00203e7e72b681a1d52
:101124001b682a600130002b05900b9305da099a9d
:101134005b4282f0010209920b93099bda0744bfd8
:1011440023f002030993059b1a782e2a0dd100225d
:10115400581c0a9205905a782a2a25d102330593fd
:101164002b681a1d1b682a600a9305a803f050fd1a
:10117400059b0390187804f084fb6928039979d0bf
:1011840032dc632800f0cb8019dc252800f0d980fc
:10119400612853d000234ff0ff32cdf81480099317
:1011a4000b930a920093d4e003f0b2fc0a90059bdf
:1011b4001a78303a092ad8d801330593f7e7642816
:1011c40058d06728e6dc2a4606a803f0cfff00289b
:1011d40000f0a180059b5a1c05921b7806aa09a958
:1011e4003046fff753f838e0702873d015dc6e28ca
:1011f40000f08c806f28cdd12b46002206a802f087
:1012040067f8002800f08780059b06aa013309a926
:101214003046059302f0f6ff1fe075283ad078288f
:1012240048d07328b6d1802975d1059b2a6801332b
:101234000593131d2b60126800237de02a4606a83f
:1012440003f094ff002866d0059b5a1c05921b7876
:1012540006aa09a93046fff779fa04443c44a74298
:101264007add3e4b4f221a604ff0ff3738462eb0de
:10127400bde8f0812b46012206a802f029f80028d7
:1012840049d0059b06aa013309a93046059302f00b
:101294001df9e2e72b46002206a802f019f80028ff
:1012a40039d0059b06aa013309a93046059303f0fa
:1012b40057fad2e72b46002206a802f009f850b3e9
:1012c400059b5a1c05921b7806aa09a9304601f011
:1012d40081fac2e72b460022f02106a801f0f8ffac
:1012e400c8b1059b01330593dde9062313430bd1f4
:1012f4001b4804f0b5f9099b009319490b9b02465e
:10130400304602f0d1fca8e77823dde72b463a19f2
:1013140006a802f04bfe059b013305939ee7802946
:10132400f9d1059b013305932b681a1d1b682a60ac
:101334008df8183006aa012309a9304603f0e4f910
:101344008be78029e7d1059b01330593099b009323
:101354000b9b04490122d3e7274688e65cad0020b5
:08136400545900005a59000021
:020000040000fa
:10136c002de9f04f099f154604468e461e46002b6c
:10137c0040f0cc808a42b2fa82fc4cd9bcf1000f0e
:10138c000bd0ccf1200801fa0cfe20fa08f802fa76
:10139c000cf548ea0e0e00fa0cf44fea15491ffa48
:1013ac0085f8befbf9fa210c09fb1ae30afb08fbd2
:1013bc0041ea03439b452ad9eb180af1ff3004d2ca
:1013cc009b4502d9aaf102002b44a3eb0b03a4b258
:1013dc00b3fbf9f209fb123302fb08f844ea0344ad
:1013ec00a04516d92c1902f1ff3303d2a04501d91f
:1013fc00931e2c44a4eb080443ea004027b124fac2
:10140c000cf400233c607b603146bde8f08f504605
:10141c00dbe71346eee702b9ffdebcf1000f2ed17d
:10142c008b1a01264fea154eaab2b3fbfef8210c1b
:10143c000efb183308fb02f941ea0343994561d9c5
:10144c00eb1808f1ff3004d2994502d9a8f102003b
:10145c002b44a3eb0903a4b2b3fbfef10efb113337
:10146c004a4344ea0344a2424ed92c1901f1ff33fa
:10147c0003d2a24201d98b1e2c44a41abce7ccf196
:10148c00200e02fa0cf521fa0ef901fa0cf320faef
:10149c000efe4eea03034fea154800fa0cf4b9fbb2
:1014ac00f8f11ffa85fe08fb1192180c01fb0ef6e1
:1014bc0040ea0242964221d9aa1801f1ff3003d228
:1014cc00964201d9881e2a44921b9bb2b2fbf8f9b2
:1014dc0008fb192209fb0efe43ea02439e450fd975
:1014ec00eb1809f1ff3604d29e4502d9a9f1020688
:1014fc002b44a3eb0e0346ea004693e70846e3e7ca
:10150c004e46f6e74046a4e70b46b6e78b4206d9b3
:10151c00002f7ed00026c7e90001304674e7b3faed
:10152c0083fcbcf1000f0fd18b4201d3824209d84e
:10153c00841a61eb030e0120002f6dd0c7e9004e19
:10154c00002661e76046f7e7ccf1200e03fa0cf3b6
:10155c0022fa0ef521fa0ef41d4301fa0cf320facf
:10156c000ef10b434fea154a00fa0cf6b4fbfaf9ec
:10157c001ffa85f80afb19401c0c09fb08f144ea18
:10158c000044a14202fa0cf23fd92c1909f1ff30a8
:10159c0004d2a14202d9a9f102002c44641a9bb2d4
:1015ac00b4fbfaf90afb194409fb08f843ea0441b5
:1015bc0088452cd9691809f1ff3304d2884502d922
:1015cc00a9f10203294443ea0040a1eb0801a0fb66
:1015dc0002894945c2464c4602d306d1464504d23f
:1015ec00b8eb020a69eb05040138afb1b6eb0a039c
:1015fc0061eb040606fa0efe23fa0cf34eea030323
:10160c0026fa0cf6c7e900369ae74846c6e74b4679
:0c161c00d9e73e463846f7e63e46f5e6c4
:020000040000fa
:1016280030b591ea030f00f18280841a71eb030c44
:1016380005d2121953eb0c03001b71eb0c0140f29d
:10164800000ccff6e07c1cea430f52d0bceb410ff4
:101658005fd90c0da4eb135e5ff0010c6cf31f5106
:101668006cf31f53def1200c2ad303fa0cf5401952
:1016780041f1000122fa0ef5401923fa0ef56941ed
:1016880012fa0cf2cd0208d349085fea30005fea8b
:10169800320228bf42f001020134013c5fea500cdb
:1016a80072f1004250f1000051eb04514ff4001365
:1016b80013eb410f38bf30bd6ff31301002030bd6d
:1016c800bef1200ebef1200f1ed223fa0ef54019ee
:1016d80041f10001cef1200c124218bf012203fa99
:1016e8000cf52a43cee711ea5c0f04bf0020002165
:1016f80030bd1cea410f04bf01f00041002030bd9d
:1017080001f00041002030bd21f4801101eb0451ab
:1017180030bd004218bf41f00101bceb410f08bfca
:1017280030bd4ff0fe4141f47801002030bd83f018
:101738000043841a71eb030e07d28ef0004e001b93
:1017480071eb0e01121953eb0e0340f2000ccff6a9
:10175800e07c1cea430fc6d0bceb410f72d90c0ddc
:10176800a4eb135ec90241ea5051c00241f00041a6
:10177800db0243ea5253d20243f00043def1200c6d
:1017880041d312fa0cf522fa0ef203fa0cf542eaea
:10179800050218bf42f0010223fa0ef3801a99419c
:1017a800e30ac4f30a0411f0404f03d418d0013cf3
:1017b80040004941013c23d44205c00a40ea415057
:1017c800c90a51eac3715fea500c72f1004250f144
:1017d800000051eb045130bd01002fd00020203c07
:1017e8000029f9d0b1fa81fcdcf1200e11fa0cf1d4
:1017f80030fa0ef510fa0cf02943a4eb0c04d9e7e3
:101808000020d90730bdaef1200ebef1200f0dd259
:10181800cef1200c03fa0cf533fa0ef32a4318bf65
:1018280043f00103c01a61f10001b9e721f000415a
:10183800c00a40ea4150c90a01eb045130bd0020fa
:10184800002130bd004218bf41f00101bceb410f3f
:0e1858007ff467afbceb430f3ff463af30bdce
:020000040000fa
:10186600f0b581ea030e0ef0004e40f20007cff607
:10187600e07717ea41051ebf95ea070f17ea43040a
:1018860094ea070f00f0c5806d0da5eb545707f5d8
:1018960080674ff0004646eac12444ea5054c0022d
:1018a60046eac32343ea5253d202801a9c4104d229
:1018b6000018644180185c41013f5b084fea320220
:1018c6000025002140f001004ff0070604e0801ad1
:1018d6009c4136d340416441801a9c4136d34041f5
:1018e6006441801a9c4136d340416441801a9c4130
:1018f60036d340416441801a9c4136d3404164410d
:10190600013e17d0801a9c4136d340416441801a6b
:101916009c4136d340416441801a9c4136d34041b4
:101926006441090201eb156190ea052520f0ff00ec
:101936004540cce7801a9c4156d335e080185c417f
:10194600c8d20018644180185c41c8d200186441ae
:1019560080185c41c8d20018644180185c41c8d226
:101966000018644180185c41c8d200186441013ee9
:1019760017d080185c41c8d20018644180185c41b9
:10198600c8d20018644180185c41c8d2001864416e
:10199600090201eb156190ea052520f0ff0045409c
:1019a600cce780185c411fd3420918bf44f00104fc
:1019b600490101ebd56100f01f0000eb451021f451
:1019c600801141ea0e01013041f10001244208bfb5
:1019d60020f00100b7f5006f3eda013f49dd01eb6b
:1019e6000751bde8f0407047490101ebd56100f0b1
:1019f6001f0000eb451021f4801141ea0e01b7f5f6
:101a0600006f29da013f34dd01eb0751bde8f040f4
:101a16007047004218bf41f00101124218bf43f05f
:101a26000103b7eb410f2cbfb7eb430f1ce0b7eb3d
:101a3600410f04bfb7eb430f16e017ea410f04bf8f
:101a460017ea430f10e017ea410f12d017ea430fc7
:101a560002d0b7eb430f0cd04ef0fe4141f47001bb
:101a66000020bde8f04070474ff0fe4141f4780198
:061a7600f6e77146f4e7fb
:020000040000fa
:101a7c00f4ab00201c0000000000000000a80020b7
:101a8c002c0100000000000068ab00204c0000009e
:101a9c000000000063ad0020010000000100000008
:101aac0005000000b8ac0020080000000000000099
:101abc0010ac00201c00000000000000c0ac002096
:101acc00080000000000000090ac00201000000096
:101adc0000000000c8ac0020100000000000000056
:101aec0000a400200004000000000000b4ab0020a3
:101afc004000000000000000d8ac002008000000ee
:101b0c0000000000e8ac0020040000000000000011
:101b1c0061ad0020010000000000000000a00020ca
:101b2c000004000000000000ecac002008000000e5
:101b3c0000000000f4a90020c0000000000000001c
:101b4c00a0ac002018000000000000002ca9002010
:101b5c00c800000000000000f4ac002004000000ed
:101b6c000000000062ad0020010000000000000039
:101b7c00f8ac00200c00000000000000e0ac0020dd
:101b8c00080000000000000004ad00200800000068
:101b9c000000000064ad0020040000000100000003
:101bac00aaaaaaaa0cad00200400000000000000a4
:101bbc000000002000a000000000000010ad00207c
:101bcc001000000000000000b4aa00206400000017
:101bdc000000000020ad00201400000000000000f8
:101bec002cac0020280000000000000034ad0020c8
:101bfc00100000000000000054ac00201400000095
:101c0c000000000044ad00200400000000000000b3
:101c1c0068ac0020280000000000000048ad002047
:101c2c00080000000000000068ad00200400000067
:101c3c00010000000400000060ad00200100000065
:101c4c000000000050ad0020080000000000000063
:101c5c0018ab0020500000000000000058ad002020
:101c6c000800000000000000000000000000000060
:020000040000fa
:101c7c002de9f84307460e4698469500284601f094
:101c8c0089ff002800f0ca808146542001f082ffb1
:101c9c000446002800f08d805422002103f064fdde
:101cac00c4f830902a46a521484603f05dfd043d5a
:101cbc00236b1d4425f0070596b1337884f8343036
:101ccc005bb1334604f134010f3600bf13f8012f1a
:101cdc0001f8012f0ab1b342f8d1002384f8433044
:101cec00089b042b28bf04239946e3626364261dda
:101cfc00304603f035fe04f1180003f031fe246188
:101d0c00c9f10503a361646242463946284603f0d3
:101d1c00e7f92060099b03b11c6003f065fb434aa3
:101d2c00136801331360424b1b68002b47d0414ba7
:101d3c001b683bb93e4b1b68da6ae36a9a429cbf4c
:101d4c003b4b1c603c4a136801331360e36a3b490c
:101d5c00086801229a4002430a60394a03eb830364
:101d6c0002eb83035b68a3609968e1604e609e6040
:101d7c00e06a8300191889005518656151580131c2
:101d8c0003449b00d15003f0dbfc2a4b1b68002b57
:101d9c0048d0274b1b68da6ae36a9a4244d2294b33
:101dac004ff080521a60bff34f8fbff36f8f01203b
:101dbc0036e0484603f055fb4ff0ff3030e01c4b4b
:101dcc001c601368012bbdd11d4d284603f05bfc34
:101ddc0005f1140003f057fc05f1280003f053fc47
:101dec0005f13c0003f04ffc05f1500003f04bfcf7
:101dfc00154f384603f047fc144d284603f043fcbe
:101e0c00134803f040fc134803f03dfc124803f068
:101e1c003afc124b1f60124b1d6093e74ff0ff30e2
:101e2c00bde8f8830120fbe70120f9e720ad002095
:101e3c0014ad002044ad00202cad002030ad0020ae
:101e4c00b4aa002004ed00e02cac002040ac002033
:101e5c0054ac00207cac002068ac002018ad0020f5
:041e6c001cad002089
:020000040000fa
:101e70002de9f84f584b1b68002b40f0a780574bbb
:101e80001c6801341c60b4b1554b1b68a3421fd9b8
:101e90000020544b1b68db6a03eb83039b00524a10
:101ea000d358022b28bf0120504b1b68002b18bfb2
:101eb0000120bde8f88f4e4a11684e4b186810603b
:101ec00019604d4a13680133136003f0a3f9dbe78f
:101ed000002047498346494d4ff0010e424adff842
:101ee00004c137e03e4b4ff0ff321a60d1e73c4b64
:101ef0001e60cee7de6ad5f800a00efa06f848eac2
:101f00000a08c5f8008006eb860602eb86067668ae
:101f10009e60d6f80880c3f80c80c8f80490c6f814
:101f20000890d3f82c904fea890606eb090802ebdb
:101f3000880ac3f814a052f8288008f101084e441a
:101f400042f82680dcf80080de6ad8f82c309e4209
:101f500088bf01200b681b68002bc3d00b68db68af
:101f6000db685e68b442c2d3d3f81480de689f6831
:101f7000be609f68776003f10409d8f804604e459d
:101f800004bfde68c8f80460c3f814b0d8f8006075
:101f9000013ec8f80060d3f82880b8f1000fa9d03e
:101fa0001e6adf69be60df69776003f1180ad8f83e
:101fb0000460564504bf1e6ac8f80460c3f828b020
:101fc000d8f80060013ec8f8006093e70c4a136837
:101fd0000133136000206ce728ad002048ad0020dd
:101fe00038ad002014ad0020b4aa00204cad002074
:101ff00018ad00201cad00203cad002030ad00200d
:0420000040ad0020cf
:020000040000fa
:102004002de9f04703f0f4f9504b1a68013a1a60cd
:102014001b68002b40f093804d4b1b680bb90024c8
:102024008ee000234b491c464b4801264b4adff8ff
:102034003ca1dff830c10d68002d5fd0cb68db68b0
:10204400d3f828e0dd691f6aaf601d6adf696f603d
:1020540003f11808def80450454504bf1d6acef8a4
:1020640004509c62def80050013dcef80050d3f8d5
:102074001480dd689f68bd609f686f6003f1040e83
:10208400d8f80450754504bfdd68c8f804505c6195
:10209400d8f80050013dc8f80050dd6ad0f800902f
:1020a40006fa05f848ea0908c0f8008005eb85053a
:1020b40002eb85056d689d60d5f80880c3f80c8037
:1020c400c8f804e0c5f808e0d3f82c804fea880586
:1020d40005eb080e02eb8e09c3f8149052f82ee0bb
:1020e4000ef1010e454442f825e0daf80050ed6a9d
:1020f400df6aaf429fd3ccf800609ce70bb103f0da
:1021040087f8174b1c686cb1164e012501e0013ca1
:1021140005d0fff7abfe0028f9d03560f7e7104b88
:1021240000221a600f4b1c6854b10f4b4ff08052c1
:102134001a60bff34f8fbff36f8f012400e00024b8
:1021440003f002fb2046bde8f08700bf28ad002065
:1021540020ad002054ac002030ad0020b4aa0020f3
:1021640040ad00204cad002004ed00e014ad002093
:020000040000fa
:102174002de9f04385b00446884601921d460027a8
:10218400534e46e0a66b2a464146204601f0c4ff62
:10219400a36ca3b1022d00f09680204602f088fac9
:1021a40038b14b4b4ff080521a60bff34f8fbff3df
:1021b4006f8f03f0c9fa012005b0bde8f083636aac
:1021c40053b90028f5d0424b4ff080521a60bff348
:1021d4004f8fbff36f8fece704f1240000f070fd24
:1021e4000028e6d03a4b4ff080521a60bff34f8f6d
:1021f400bff36f8fdde703f0a7fa0020dce702a846
:1022040003f022fa12e0204601f06cfbfff7f8fe1f
:10221400012703f0edf8a26be36b9a42b2d3022dcf
:1022240047d0019b002be6d0002fe8d003f08cfab6
:1022340003f008fb03f0dcf894f844305bb2b3f12c
:10224400ff3f04bf002384f8443094f845305bb268
:10225400b3f1ff3f04bf002384f8453003f074fa60
:1022640001a902a802f00cf9e0b903f0c1f8d4f80e
:102274003890e76b03f068fab945c4d1019904f1c9
:10228400100003f047f9204601f02cfbfff7b8fedd
:102294000028bdd14ff080533360bff34f8fbff39d
:1022a4006f8fb5e7204601f01dfbfff7a9fe002064
:1022b40082e7a66b02224146204601f02dffa36c63
:1022c400002b3ff47caf002e7ff473af65e700bfb3
:0422d40004ed00e035
:020000040000fa
:1022d8002de9f04104464568012904d09046494e4d
:1022e80006f1c00754e00022464e06f1c00717e089
:1022f80023681b6844492846984723681b68b168c7
:102308002846984723681b68f16828469847236839
:102318001b683e492846984701221836be420ad013
:102328007368002bf9d0002ae2d123681b6838496a
:1023380028469847dce723681b68364928469847ab
:10234800354f07f10c063037dff8bc8023681b686f
:1023580041462846984723681b6856f80c1c2846af
:10236800984723681b6856f8041c28469847236832
:102378001b682649284698470c36b742e6d1236899
:102388001b6826492846984733e01836be4232d0a3
:102398007368002bf9d0d8f80410b06803f080f9fe
:1023a8000028f2d177683368f3b10c374ff0000892
:1023b80023681b6814492846984723681b6857f800
:1023c8000c1c2846984723681b6857f8041c2846a5
:1023d800984723681b680d492846984708f1010863
:1023e8000c3733684345e3d823681b680b492846f4
:1023f8009847bde8f08123681b6809492846984733
:10240800f7e700bff4a90020f4370000fc3700000c
:10241800c8370000043800008c5200003038000033
:042428003438000044
:020000040000fa
:10242c002de9f04184b0044601914ff00008464676
:10243c0045464f4f43e0013ba36323684bb12369ef
:10244c005bb903f07df94ff00108404604b0bde8dc
:10245c00f08103f069f8a060f1e704f1100000f0de
:10246c002bfc0028edd0424b4ff080521a60bff38a
:10247c004f8fbff36f8fe4e703f062f94ff0000862
:10248c00e3e702a803f0dcf823e002f0adffa0685c
:10249c0000f048fd804603f053f940e0204601f07f
:1024ac001dfafff7a9fd09e0204601f017fafff726
:1024bc00a3fd204603f0dcf8002844d1012602f0ed
:1024cc0093ffa36b002bb6d1019b002bd4d0002e15
:1024dc00d7d003f035f903f0b1f902f085ff94f889
:1024ec0044305bb2b3f1ff3f08bf84f8445094f81a
:1024fc0045305bb2b3f1ff3f08bf84f8455003f0a1
:10250c001ff901a902a801f0b7ff0028ccd1204681
:10251c0003f0aef80028c1d02368002bb5d0019988
:10252c0004f1240002f0f2ff204601f0d7f9fff786
:10253c0063fd0028c2d14ff080533b60bff34f8f37
:10254c00bff36f8fbae7b8f1000f3ff47eaf02f024
:10255c004bff616a19b1236b1968c1f10501a068c1
:10256c0001f004f803f0ecf84ff000086de700bf41
:04257c0004ed00e08a
:020000040000fa
:10258000f0b540f2ff7681ea030c16ea115e1ebf39
:10259000b64516ea1355b54252d021ea465141f4e8
:1025a0008011a1fb024723ea465343f48013ae4453
:1025b000a0fb03650cf0004c36197d41a1fb0347dd
:1025c00047f10003a0fb0217f619654153f1000320
:1025d000094218bf46f0010640f2fe74b3f5007fd1
:1025e00013d2aef5806ea64523d24cea0331280300
:1025f00041ea155140ea16503203450872f1004293
:1026000050f1000051eb0e51f0bdaef2ff3ea64579
:102610000fd24ceac321e80241ea555140ea565034
:10262000f202450872f1004250f1000051eb0e51e8
:10263000f0bd1eea0e0f2dd50cf000410020f0bdbc
:1026400016ea115f04bf01f000410020004218bfec
:1026500041f0010116ea135f04bf03f000430022ba
:10266000124218bf43f0010306ea1354b44218bfe4
:10267000b64503d00cf000410020f0bd21f0004130
:1026800023f00043b1eb065f0cd8b3eb065f09d82b
:1026900041b13bb10cf0004141f0fe4141f4700109
:1026a0000020f0bd40f20001c7f6f8710020f0bd37
:020000040000fa
:1026b0004661696c656420746f206372656174653e
:1026c0002074686520436f6e736f6c6520415049bc
:1026d0000d0a0000202a2a2a20436f6d6d616e6466
:1026e0002050726f636573736f723a20506c65612e
:1026f0007365207479706520696e206120636f6d49
:102700006d616e642a2a2a0d0a0000000a0d205409
:102710006f6f206d616e7920617267756d656e7483
:10272000732e204d6178696d756d2061726773201d
:10273000737570706f727465643a202564210d0a98
:1027400000000000202a2a2a20436f6d6d616e640c
:102750002050726f636573736f723a20756e6b6e83
:102760006f776e20636f6d6d616e642e202a2a2a4a
:102770000d0a00003e000000081b5b4b25731b5b2d
:1027800025644400081b5b4b000000001b5b4b25cd
:10279000731b5b256444000025731b5b25644400a8
:1027a000202a2a2a20436f6d6d616e642050726f5b
:1027b000636573736f7220627566666572206578f3
:1027c0006365656465642e2052657472792e202ad3
:0827d0002a2a0d0a000000bfd7
:020000040000fa
:1027d8002de9f04f0e4649683568d6f80890f76835
:1027e8008bb0cde903230029acbf25f002050121f8
:1027f80015f010030593039b8346d3e900232fd0dc
:1028080052ea03002cd0a9f10208346915f0080037
:1028180004f1ff3408904ff00000385518bf08f154
:10282800ff388a46012c1ddc059b002b54d1089be0
:1028380013b1013c20233b5532690095013a4b46c0
:10284800121b3919584601f02dfadbf80430db0564
:1028580003d573689842b8bf18460bb0bde8f08f2f
:10286800c846d2e752ea030009d1baf1000f06dce4
:10287800a8eb010050440028d6dda807d4d502f003
:102888000f000928d4bf00f1300e00f1570e04984c
:10289800a0f1410cbcf1190f04f1ff3410d84ef02f
:1028a800200cacf1610cbcf1190f09d870460991e4
:1028b800cde9062302f0eaffdde9062309998646f9
:1028c800100940ea03704fea131c07f804e00af104
:1028d800ff3a02466346a5e7039bd3e9000150eaa5
:1028e8000103a4d03a19049b02f8013c023c3023ae
:0428f8003b559ce7c9
:020000040000fa
:1028fc002de9f04385b00446884601920026354602
:10290c00dff8f89035e04146204602f0f5fc7b1ede
:10291c00a36323692bb902f013ff012005b0bde8b6
:10292c00f08304f1100000f0c7f90028f3d0334b0a
:10293c004ff080521a60bff34f8fbff36f8feae7ef
:10294c0002f0fefe0020e9e702a802f079fe1ae090
:10295c00204600f0c3fffff74ffb09e0204600f0d4
:10296c00bdfffff749fb204602f082fe002842d152
:10297c00012602f039fda76b002fc4d1019b002b5f
:10298c00ded0002ee0d002f0dbfe02f057ff02f0aa
:10299c002bfd94f844305bb2b3f1ff3f08bf84f8d1
:1029ac00445094f845305bb2b3f1ff3f08bf84f854
:1029bc00455002f0c5fe01a902a801f05dfd0028fa
:1029cc00ccd1204602f054fe0028c1d0019904f16c
:1029dc00240002f09bfd204600f080fffff70cfb6b
:1029ec000028c5d14ff08053c9f80030bff34f8f8a
:1029fc00bff36f8fbce7002090e700bf04ed00e051
:020000040000fa
:102a0c0010b5344b1c6d344b23404bb1314a13651c
:102a1c00324b1b6823b1314b59681b6820469847d1
:102a2c0014f0010f0dd02b4b01221a65d3f8a40022
:102a3c002b4b1b682bb12a4b59681b6800f07f008d
:102a4c00984714f0100f0dd0224b10221a65d3f8b2
:102a5c00b400234b9b682bb1214bd9689b6800f0c9
:102a6c007f00984714f4002f09d01a4b4ff4002222
:102a7c001a65d3f8983013b113f0010f20d114f468
:102a8c00006f0ad0134b4ff400621a65154b1b688c
:102a9c001bb1144b58681b68984714f4805f0ed018
:102aac000c4b4ff480521a65d3f8f4000e4b1b6894
:102abc002bb10d4b59681b6800f03f00984710bdb7
:102acc000a4b1b68002bdad0084b59681b68002096
:102adc009847d4e700040042eee7f7ffb8ac0020bb
:102aec0090ac0020d0ac0020c8ac0020c0ac0020c2
:020000040000fa
:102afc00334b00221a7403f50063324a9a621a4669
:102b0c00536813f0100ffbd12f4b4222c3f88420d3
:102b1c001a4600bfd2f8843013f0400ffad02b4b7a
:102b2c0000229a6377225a631a46d36b13f0040f70
:102b3c00fbd1264b022283f830201a46d36b13f0bc
:102b4c00020ffbd1214a136c03f00303032bfad1c0
:102b5c001f4b01225a711a46d37813f0010ffbd088
:102b6c00194b1c4a1a621a46536813f0040ffbd116
:102b7c00154b194a5a621a46536813f0080ffbd1c9
:102b8c00114b4122c3f8dc201a4600bfd2f8dc30ce
:102b9c0013f0400ffad00c4b4122c3f8f0201a4628
:102bac00d2f8f03013f0400ffad0094b6ff07f429f
:102bbc001a6140f2ff725a61084a9a61704700bf6d
:102bcc000014004006013000001c004000100040c2
:102bdc0000080040070101000701020056820100b5
:020000040000fa
:102bec002de9f84300295ed00f4600242f4e304bc0
:102bfc0000f1010edff8bcc006e00cf801809a6011
:102c0c00621c0134974244d9726802f00702012a0f
:102c1c0018d09968dd684a1cd3f81080424528bf4b
:102c2c000022954236d010f80480756805f007052f
:102c3c00012de2d14d000cf81180691c00250cf817
:102c4c000150dce7d3f80880d96808f101021d694e
:102c5c00aa4228bf002291421cd01ef8145010f832
:102c6c00141041ea0521756805f00705012d05d002
:102c7c00c9b20cf808109a60621cc2e74fea48050a
:102c8c005ffa81f90cf818900135090a0cf8051057
:102c9c00f1e7144602f098fc10b1044b01229a752e
:102cac002046bde8f8830c46f4e700bf0020014144
:082cbc00b4ab002000a60020cb
:020000040000fa
:102cc40030b4c368db689a6ad869196a8160d869c4
:102cd400486003f118005168814204bf196a5160c9
:102ce40000219962116801391160254a1268002a8d
:102cf40039d15a699868d968816098684860181d04
:102d04005168814204bfd96851600021596111683a
:102d140001391160da6a1b4c25680121914029436d
:102d24002160194902eb820201eb820252689a6027
:102d34009468dc6060609060dc6aa2001019800016
:102d44000d185d61085801302244920088500f4ae2
:102d54001168da6acb6a9a4283bf01200c4b18606f
:102d6400002030bc70470b4a5168d9618c681c62e2
:102d7400606088609a62116801311160e7e700bf02
:102d840028ad002030ad0020b4aa002014ad0020ee
:082d94004cad002054ac0020fe
:020000040000fa
:042d9c00012070475b
:020000040000fa
:102da00053ec102bc3f30a512de9f04140f2fd70b2
:102db0004e1e86421d4645d8a1f2ff30002835db65
:102dc000332831dc284bc0f120084ff0ff3c03fad8
:102dd00008f2a1f21f412cfa00fc10ee104a4cea56
:102de000020c23fa01f24cea020c23fa00fe04ea78
:102df0000c0605ea0e0724ea0c0256ea070425ea47
:102e00000e030fd0002a73f100040bda4ff4801583
:102e100005fa08f425fa01f10c43121925fa00f01d
:102e200040eb030343ec102bbde8f081002a73f163
:102e3000000303db9fed080bbde8f0819fed080b5d
:102e4000bde8f0810029efd10a4603f0004343ecce
:102e5000102be9e7aff30080000000000000000045
:0c2e6000000000000000f0bfffff0f00aa
:020000040000fa
:102e6c00002a59d02de9f8438046154620b1012897
:102e7c002ad00020bde8f883284bd3f8a440c4f333
:102e8c000524d1b14f1e5ffa87f9002600e01e46db
:102e9c00234b1b6804ebc401482203ebc1012846f9
:102eac0002f050fbb74208d048350134e4b2012c93
:102ebc0008bf4446731cb145e9d104f03f04174bdd
:102ecc00c3f8a8400120d5e7144bd3f8b440c4f3a1
:102edc000524d1b14f1e5ffa87f8002600e01e468c
:102eec000f4b5b6804ebc401482203ebc10128467d
:102efc0002f028fbbe4208d048350134e4b2012c64
:102f0c0008bf0024731c4645e9d104f03f04034b71
:102f1c00c3f8b8400120ade7002070470004004220
:042f2c0010ac0020c5
:020000040000fa
:102f3000002856d070b50446c26a2b490968c96a90
:102f40008a4245d28169002905db27490968c96a97
:102f5000c1f10501816102eb8202244901eb820289
:102f60006169914205d0204a1268d26ae26201206a
:102f700036e0251d284602f0e9f938b91c490b68ee
:102f8000e06a0122824023ea02030b60164b1b68b1
:102f9000db6ae36216490e68012000fa03f232434d
:102fa0000a60124a03eb830302eb83035b68a360ae
:102fb0009968e1604d609d60e56aab005919890030
:102fc00056186661515801442b449b00d15007e0cc
:102fd000054a1268406cd36a98422cbf0020012039
:102fe00070bd0020704700bf14ad0020b4aa0020bf
:042ff00030ad0020e0
:020000040000fa
:102ff40010b504464ff49672002102f0b9fb284a3a
:10300400936943f001039361936913f0010ffbd0bb
:10301400234a936943f002039361224b1c601968ad
:1030240089b241f0004141f48031c2f8a01004f1aa
:1030340048015960596889b241f0004141f4803136
:10304400c2f8b01004f190019960996889b2c2f88d
:10305400ac1004f1d801d960d96889b241f080710b
:10306400c2f8c01004f590711961196989b241f46c
:103074008031c2f8f01004f594745c6159690a480f
:1030840008605b699bb243f48033c2f8843093696f
:1030940023f001039361936913f0010ffbd110bd79
:0c30a4000004004210ac00205e045a0c36
:020000040000fa
:1030b0002de9f843eff311874ff0200484f31188d2
:1030c000bff36f8fbff34f8f856bc46ba54206d3e1
:1030d000022b04d0002087f31188bde8f8831d4639
:1030e0009046044690f8456076b2d0f838901a467b
:1030f00001f014f8b6f1ff3f21d1a36c7bb1022d92
:1031000002d1b9f1000f24d1204601f0d3fa10b357
:10311000b8f1000f21d00120c8f80000dbe7636a96
:103120000bb90120d7e704f12400fff7cbfdb0b1c4
:10313000b8f1000f15d00120c8f80000cbe702f06d
:10314000c9fb86420fd2013676b284f84560012071
:10315000c1e70120bfe70120bde70120bbe7012057
:0a316000b9e70120b7e70120b5e749
:020000040000fa
:02316a007047ac
:020000040000fa
:10316c002de9f041294e2a4c4ff00108294f13e06c
:10317c00226afab1616a236a40469847a36a01330e
:10318c00226b934228bf002314e0a26aedb2bd5417
:10319c00a36294f83430fbb9337e13f0040f32d0b1
:1031ac00b56aa36a0133226b934228bf0023e26afb
:1031bc009a42ddd0e26a9a42eed0726802f00702bf
:1031cc00012ae2d1a16a4a00e8b207f811000132e3
:1031dc00c5f30725bd54dbe702f002fa236a002b86
:1031ec00dad0616a94f83c3033b1a36b9842d3d3f4
:1031fc00236a00209847cfe7a36b9842ccd1236a6f
:10320c0000209847c8e7bde8f08100bf00200141cd
:08321c00b4ab002000a4002067
:020000040000fa
:1032240070b504460e46234b1d68234b18680430c2
:1032340002f08af848b9204b1a6820490b68d06a12
:103244000122824023ea02030b60b4f1ff3f0dd058
:103254002c44194b1b685c60a5421dd9184b186897
:10326400154b1968043101f04dfe70bd002eefd0ee
:10327400144a5168104b1868816018688c68c460df
:103284001868043060601868043088601b685a61ec
:10329400136801331360e8e70b4b1868064b196891
:1032a400043101f02ffe094b1b68a34284bf074b76
:1032b4001c60dae748ad002014ad002030ad0020da
:1032c4001cad002068ac002018ad002038ad0020f3
:020000040000fa
:1032d400882910b536d012dc812943d003dc80293b
:1032e40040d0002010bd82290ed08429f9d119685c
:1032f40002b30a1d1a60b1f90020d3171ee0a029f9
:103304002bd00bdc9029ecd11968073121f007018f
:1033140001f108021a60d1e900230fe0c02901d0ad
:10332400f029ded11a68111d1960136803600023a7
:10333400436005e00a1d1a600a880023c0e90023df
:103344000120cfe7196822b10a1d1a6091f9002003
:10335400d3e70a1d1a600a78efe71a68111d19608d
:103364001268cae719681ab10a1d1a600a68c4e724
:0c3374000c1d1c600b68c0e90032e1e792
:020000040000fa
:1033800070b582b0254d264c264e14e0f25c8df8c7
:103390000620013322699a4298bf0023e3606b68dc
:1033a00003f00703012b14bf9df80630bdf806306b
:1033b000ab62237dbbb92b7e13f0010f2cd0a2682a
:1033c000e3689a4225d06a6802f00702012addd13b
:1033d0005a0016f813108df806100132b25c8df801
:1033e00007200133d6e702f089f92368002be2d0e9
:1033f0006168237f33b1a3699842dcd3236803203b
:103400009847d8e7a3699842d5d123680320984705
:10341000d1e7024b01221a7502b070bd00200141b4
:08342000b4ab002000a600205f
:020000040000fa
:10342800244b1b681bb1244b01221a60704710b54e
:10343800214b00221a60214b1b681b6b1a68b2f1e2
:10344800a53f03d15a68b2f1a53f23d01b4b18689a
:103458001968343102f0a8f9194b1b68b3fa83f3e1
:10346800dbb2c3f11f03174a9900c81802eb8000aa
:10347800446864684460194402460832944212d091
:1034880003eb83030f4a02eb83035b68da680b4b99
:103498001a6010bd9a68b2f1a53fd7d1db68b3f1c5
:1034a800a53fd3d1d8e760680a46064901eb8202f6
:1034b8005060e5e728ad00204cad002014ad002099
:0834c80030ad0020b4aa002081
:020000040000fa
:1034d0002de9f041d2e900230c4686b007465feaa9
:1034e000d37820684968a5680590e66841d05242c3
:1034f00063eb4303002908db20f002000590b8f1dc
:10350000000f02d1059948072ad5691e05a8029027
:103510000a20cde90010204600f0c4fdb8f1000fec
:1035200002d1059b59071fd5b8f1000f00f1ff30fc
:1035300014bf2d232b2333542269059b0093013a9a
:103540002b46121a3118384600f0b0fb7b68db05b9
:1035500003d563689842b8bf184606b0bde8f0814d
:103560000807d2d42946d1e71a07e5d50138202328
:08357000e1e70029c0dac5e71c
:020000040000fa
:10357800002846d038b50446426c914238bf1146ff
:10358800c26a8a4202d0806c012800d038bde1624c
:10359800a0690028a4bfc1f10501a16102eb820264
:1035a800184901eb820261699142efd1251d284635
:1035b80001f0c8fe38b914490b68e06a012282405c
:1035c80023ea02030b60e36a0f49086801229a4064
:1035d80002430a600b4a03eb830302eb83035b6835
:1035e800a3609968e1604d609d60e06a83001918e6
:1035f8008900551865615158013103449b00d15029
:0c360800c4e77047b4aa002030ad0020d9
:020000040000fa
:10361400204b01229a611a46936913f0010ffbd0e3
:103624001c4b9a6942f002029a6141f27742da60d5
:10363400194ada6140f27772c3f8bc204ff0ff32c6
:10364400c3f89820c3f89c200722c3f8c820282276
:10365400c3f8802001221a629a6942f440729a6186
:103664009a6922f001029a611a46936913f0010fd4
:10367400fbd1084b00229a650122da65074a5a6594
:10368400074b03f11c01002203f8012b8b42fbd1f1
:10369400704700bf000400421d58003addddfb3fc7
:0436a40010ac002046
:020000040000fa
:1036a80030b5c3b005460c461e4b4ff48022c3f814
:1036b800142101f071fc10f0070005d0072803d091
:1036c800194b04221a7002e014f0ff0f06d0154bb4
:1036d8004ff48022c3f8182143b030bd05ebc50272
:1036e800124cd2000021204602f040f8224629461a
:1036f8000020fff7b7fb18b90b4b04221a70e6e756
:1037080000248df80440094d482229460df1050092
:1037180001f01aff009423466a4601a9a86cfff736
:10372800c3fcd4e70080004163ad002068ab0020f3
:020000040000fa
:103738002de9f04f83b080468b4601f108030193d1
:10374800184601f08bff88b381460746d8f8006019
:10375800d8f8045008f1200ad8f81c40a4eb0a0451
:10376800a04207da3368134928469847013ca74224
:10377800f8d14c4634b1104f33683946284698473b
:10378800013cf9d10199504602f0b2f833680b496f
:103798002846984733685146284698470aeb090354
:1037a800c8f81830c8f81c30c8f8d4b003b0bde861
:1037b800f08f00bfd4520000d8520000dc52000045
:020000040000fa
:1037c8000d0a2d2d2d2d2d2d2d20537570706f72f6
:1037d80074656420636f6d6d616e642067726f75c8
:1037e8007073202d2d2d2d2d2d0000000d0a202a5f
:1037f8002a2a2000202a2a2a000000000d0a2d2d3e
:103808002d2d2d2d2d2d2d2d204275696c7420699f
:103818006e20636f6d6d616e6473202d2d2d2d2dbf
:103828002d2d2d2d2d0000000d0a00000d0a556ebe
:103838006b6e6f776e20636f6d6d616e642067725b
:103848006f75702e205472792068656c700d0a00af
:020000040000fa
:1038580000283ed038b50446c36b002b3bd0006c23
:10386800a0fb03230bb1002036e00d4601f0befd9e
:103878002268216ce36b03fb01f3d018a0600020e1
:10388800a06362605b1a1344e360ff2384f844304a
:1038980084f84530a5b923691bb901f053ff01200d
:1038a8001ae004f11000fff709fa0028f5d00b4bd5
:1038b8004ff080521a60bff34f8fbff36f8fece762
:1038c80004f1100001f0e1fe04f1240001f0ddfe36
:1038d800e3e700207047002038bd00bf04ed00e09a
:020000040000fa
:1038e80070b5054601f082fd95f8454064b2002c9c
:1038f80019dd05f1240608e06b6aa3b13046fff72d
:10390800ddf968b9013c64b26cb1ab6c002bf3d043
:10391800284600f0cbfe0028f4d001f0ddfff1e7e7
:1039280001f0daffeee7ff2385f8453001f00affe2
:1039380001f05cfd95f8444064b2002c11dd2b6960
:103948007bb105f1100606e001f0c6ff013c64b248
:103958003cb12b692bb13046fff7b0f90028f5d000
:0e396800f2e7ff2385f8443001f0ecfe70bd5d
:020000040000fa
:02397600704798
:020000040000fa
:103978002de9f041adf5027d002241a91b4b986c61
:10398800fef7b8ff70b3419b9df8087107f01f0759
:103998003f0647ea1327bf149df80b5105f00f05a2
:1039a80001ac134b0fcb84e80f00665d4ff48072b7
:1039b8000021204601f0dafe76b143ac264400250a
:1039c800dff8348014f8012f414601ab581901f093
:1039d800d7fd0335b442f5d101ab3a46054900207d
:1039e80000f0e6fc0df5027dbde8f08168ab002033
:0c39f800e8570000dc560000d456000028
:020000040000fa
:103a040000283bd070b50446826c013a8264c06ad7
:103a1400616c884234d00ab1002070bd251d28464f
:103a240001f092fc38b917490b68e06a0122824020
:103a340023ea02030b60636ce362c3f10502a26133
:103a440010490e68012000fa03f232430a600e4a5c
:103a540003eb830302eb83035b68a3609968e16073
:103a64004d609d60e56aab0059198900561866617e
:103a7400515801442b449b00d150cee7002070479d
:0c3a84000020cae730ad0020b4aa0020ea
:020000040000fa
:103a900070b506460d464ff4127001f03fff044624
:103aa000002830d04ff41272002101f063fe26602e
:103ab000656004f12003a361e36104f1d80304f518
:103ac000127108e0c4f8cc30c4f8d0301b605b60e1
:103ad0005c338b420ed0d4f8cc20002af2d01a608e
:103ae000d4f8d0205a601360d4f8cc205360c4f8c6
:103af000cc30ede70023a360064b1b682bb1054bd0
:103b00005a6894605c60204670bd024b1c605c602b
:083b1000f9e700bfd8ac00206a
:020000040000fa
:103b180008b5194b9847194b9847eff3108172b6bf
:103b2800174ad2f8883043f47003c2f88830bff3dc
:103b38004f8fbff36f8f01b962b6124a936823f0b3
:103b4800010393601346da6812f0010ffbd10d4ba5
:103b580024225a6001229a6001f094f80a4b23f05b
:103b68007f03074a9360094b9847094b9847094bcd
:103b7800984701f07dfefee7934100009341000065
:103b880000ed00e000600041000000000146000078
:083b980093410000934100007d
:020000040000fa
:103ba00038b5044610f0070f05d020f0070308339e
:103bb000834225d91c4601f047fe184b1b686bb1a8
:103bc00024b3174b1b681c4449f6f77294420bd878
:103bd000a3420cd3fef716fa1ae000240f4a114b49
:103be00023f007031360ebe7fef70cfa10e00b4a33
:103bf00015681d440a4b1c60fef704fa5db907e026
:103c000001f022fe054b1b68002be6d0fef7faf907
:103c100001f0d7fd0025284638bd00bf0cad0020bf
:083c200010ad00200700002098
:020000040000fa
:103c28002de9f0411c4ad36a956a89b30e46ab4226
:103c380008bf002227d00122dff864c0174ca0f18a
:103c4800020e0138144f0ce0e15c81540133396bea
:103c5800994298bf0023b24214d2511cab4212d0f1
:103c68000a46dcf8041001f007010129ecd15900db
:103c780014f813800ef812800131615c00f81210fc
:103c88000133e4e71d46044bdd621046bde8f081d0
:103c98001d460a46f7e700bfb4ab002000a4002089
:043ca80000200141b6
:020000040000fa
:103cac002de9ff471d460c9b13f0010906468a4679
:103cbc00144601d195420bd822465146304601f0ac
:103ccc00cbfaa54204d82546284604b0bde8f087b7
:103cdc002f1b102f3a464ff0200128bf10226846a8
:103cec00b84601f041fd00bfb8f10f0f11d83b09e8
:103cfc006ff00f0202fb03726946304601f0acfa1a
:103d0c00b9f1000fe0d122465146304601f0a4fa39
:103d1c00dae710226946304601f09efaa8f1100845
:043d2c00e2e700bf0b
:020000040000fa
:103d30001d4bda6822f4e0621204120c42f0bf62fa
:103d400042f40032da60bff35f8f62b6e02183f89d
:103d50002310164a82f836134ff48000506082f820
:103d600037134ff40000506082f838134ff0807022
:103d7000506082f839134ff00070506082f84f1392
:103d80004ff4004191605a6a42f480225a625a69a3
:103d900042f010025a615a6a42f400325a625a6a78
:103da00042f480325a62704700ed00e000e100e02a
:020000040000fa
:103db0001c4b1d4a1a604cf215129a814ff4403286
:103dc0005a601a46d369002bfcd1164a136843f097
:103dd00002031360d369002bfcd1144b00221a623a
:103de0009a62da6283f8342083f83c209a63da8797
:103df0001a609a60da601a751a779a61094b5b68e3
:103e000003f00703012b094b14bf4ff400724ff46a
:103e100080721a631a61034b80229a7504229a7584
:103e2000704700bf0020014184011040b4ab002066
:020000040000fa
:103e30000eb430b5adf5816d0df2144353f8042b7b
:103e400001934ff4806102a800f07cfb421e40f217
:103e5000fe339a4221d8044602ab00221a54124b78
:103e60001b680344b3f5806f24bf0f4b1a600e4be1
:103e70001b680e4d1d4402a9284601f03dfd294650
:103e8000002001f011fb14f0030318bfc3f1040379
:103e9000054a1c4413681c4414600df5816dbde88f
:103ea000304003b0704700bfecac002000a0002001
:020000040000fa
:103eb0002de9f84380b3894617460546002414e0ef
:103ec000b8f1000f2cd008f101062221304601f094
:103ed0005bfc18b3864226d000230370bc4238bf77
:103ee00049f824600134451c1ad02221284601f0eb
:103ef0004bfc804608b1002303700c4e3146284627
:103f000000f0e4fd03460028dad0bc4238bf49f88f
:103f1000243001340025f1e7002401e04ff0ff34a4
:103f20002046bde8f8834ff0ff34f9e78c0200002b
:020000040000fa
:103f300030b50d4689b0044620220021684601f0c4
:103f400019fc2878b0b16b786bb1013d012000bf3e
:103f500015f8013f83b921460125084611f8013bb8
:103f6000c3b9001b06e023461a460133117881428b
:103f7000fad0101b09b030bd5a0908a901eb820222
:103f800003f01f0352f8201c00fa03f30b4342f81e
:103f9000203cdde75a090df1200c0ceb820203f006
:103fa0001f0352f8202c05fa03f31342d5d1d8e7aa
:020000040000fa
:103fb000842910b523d00cdc812903d0822913d0a9
:103fc00080290bd119680c1d1c600b6803601a60f6
:103fd00013e0902921d003dc882917d0002010bde0
:103fe000a029efd0c029ece719680c1d1c600b68f4
:103ff0000360d1171046c3e900010120efe71968fb
:104000000c1d1c600b6803601a80f6e719680c1d14
:104010001c600b6803601a70efe719680c1d1c60c8
:0c40200009680160d317c1e90023e6e73e
:020000040000fa
:10402c0030b50d46097889b0044609b16b782bb9c7
:10403c00204600f051fa001b09b030bd20220021af
:10404c00684601f091fb013d012000bf15f8013fce
:10405c00a3b921460125084611f8013b002bead0f3
:10406c005a090df1200c0ceb820203f01f0352f8dd
:10407c00202c05fa03f31342edd0dce75a0908a90a
:10408c0001eb820203f01f0352f8201c00fa03f329
:08409c000b4342f8203cd9e778
:020000040000fa
:1040a4002de9f84f04460c9f6668d4f80cb02469d7
:1040b40010463a68013c002502f0020a0b9a0bf8fc
:1040c4000450002e1946b8bf0126012390464fea3a
:1040d400e279002c03dcd3b12046bde8f88f50ea26
:1040e400010209d1721b002a06dc0a9a521b002a1b
:1040f400f1ddbaf1000feed042464b4600f0c6ffa8
:10410400013c134630320bf804200135e1e73b68eb
:0841140023f010033b60dfe71c
:020000040000fa
:10411c0070b504461646856b026c5ab903681bb120
:10412c0000200135a56370bd8068fff765fc002396
:10413c00a360f6e76eb9406801f004fa6368226c7c
:10414c0013446360a268934219d3236863603046ba
:10415c00e7e7c06801f0f6f9226c5242e3681344b9
:10416c00e36021688b4202d2a3681a44e260022efb
:10417c0001d00020d5e725b1013d0020d1e7304624
:06418c00cfe70020cde7a3
:020000040000fa
:02419200704774
:020000040000fa
:1041940080b5174cdff86480164edff86490164f34
:1041a4002368c3b101f024f9d8f80c30dd68281d68
:1041b40001f0caf83368013b33602368013b236094
:1041c40001f0c2fa286b01f050f9284601f04df9cc
:1041d4002368002be6d13b68012be1d94ff08053d3
:1041e400c9f80030bff34f8fbff36f8fd7e700bf1d
:1041f40024ad002020ad0020b4aa00207cac002017
:0442040004ed00e0e5
:020000040000fa
:10420800f0b50c4649682368a768e56887b00029b7
:104218000593a4bf23f00203059305ab029308237b
:10422800cde900730646d2e900232046fff736ffa2
:10423800059bd90642bf00f1ff3030232b54059b64
:104248001a0742bf00f1ff3020232b542269059b37
:104258000093013a3b46121a29183046fff722fd0f
:104268007368db0503d563689842b8bf184607b082
:02427800f0bd97
:020000040000fa
:02427a00fee75d
:020000040000fa
:10427c0000b583b0124b01930023009380221149a7
:10428c001148fdf7f5fc012804d0104b1b6803b056
:10429c005df804fb4ff0200383f31188bff36f8f9d
:1042ac00bff34f8f0a4b4ff0ff321a60094b0122bc
:1042bc001a60094b00221a6000f0defbe5e700bf34
:1042cc0034ad00204c5900009541000068ad002031
:0c42dc0038ad002044ad002048ad0020ab
:020000040000fa
:1042e80072657365740000003a2052657365742026
:1042f800686f737400000000710000003a20717547
:10430800697420636f6d6d616e642070726f636590
:1043180073736f720000000068656c700000000025
:104328003a2068656c7000001b5b41001b5b420013
:104338001b5b43001b5b44001b5b317e00000000dd
:084348001b5b347e000000bf86
:020000040000fa
:1043500038b505460c46154b1b7843b1fdb90cb377
:10436000134b93f900305bb14ff0ff3038bd11486b
:1043700001f017f901280fd10c4b01221a70ede75b
:10438000a0680b4b986062685a60022119705368ec
:10439000216898470020e9e74ff0ff30e6e74ff04b
:1043a000ff30e3e74ff0ff30e0e700bf62ad0020f1
:0843b000acac0020f4ac0020cd
:020000040000fa
:1043b80058bb0eb410b583b0144b93f9003043b119
:1043c800124b5b682bb14ff6ff71114801f01ef8d4
:1043d80020b903b0bde8104003b0704706ab0193a5
:1043e800059ac8210b4800f0a9f8431ec62b08d827
:1043f800084900230b54054b5a68546902469868cb
:10440800a047034801f0d5f8e3e77047acac0020bb
:08441800f4ac00202ca90020e7
:020000040000fa
:10442000eff30980bff36f8f154b1a681ef0100f62
:1044300008bf20ed108a20e9f04f10602de9090037
:104440004ff0200080f31188bff34f8fbff36f8fc1
:10445000fef7eaff4ff0000080f3118809bc1968ed
:104460000868b0e8f04f1ef0100f08bfb0ec108adb
:1044700080f30988bff36f8f704700bfaff30080f0
:0444800014ad002057
:020000040000fa
:1044840070b505460c4600f0b3ff134b1a68236859
:10449400b3f1ff3f1ad06968104800682e6886425d
:1044a40005d0914203d80023236001240fe0501a61
:1044b400834203d800232360012408e09b1a0b44a1
:1044c4002360284601f0c0f8002400e0002401f035
:1044d4003bf9204670bd00bf48ad00203cad002034
:020000040000fa
:1044e400c9b2f8b50446f1b103469a0718461ed17d
:1044f4004ff001354d431e4656f8044b84ea050738
:10450400a4f10132a7f1013022ea040220ea0700f3
:10451400024312f0803f11d0184613f8012b2ab140
:104524008a42f9d102e001f09bf82044f8bd13f867
:10453400012b002afad08a42d7d1f7e73346dae7cb
:020000040000fa
:10454400f0b59bb004460d46164600214c2207a840
:104554001f4601f00df94ff0ff33029303f20313ea
:10456400039304b901accde9044555b16a1e002d8d
:10457400069208da094b4f221a604ff0ff301bb045
:10458400f0bd2a46f3e71cbf002323703a463146a8
:1045940002a8cde9074400f0e7fff0e75cad002096
:020000040000fa
:1045a400154b4ff00042c3f89020012283f8cc2031
:1045b40083f8cd2083f8d82083f8d920062283f805
:1045c400df20772283f8b620332283f8bc20002230
:1045d40083f8bf204ff48421c3f800114ff48021e5
:1045e400c3f8101183f84d2183f8522183f8362142
:0c45f40083f83921704700bf00800041af
:020000040000fa
:104600000e4a38b5002313600d4a0e4c13600e4a53
:104610000e4d13600e4a13600e4a13600e4a536229
:1046200013610123936001f0def801f0dcf8ac4285
:1046300000d338bd54f8043b9847f8e758ad002044
:1046400024ab00207002000020ab002074020000a8
:0c46500018ab00201cab002028ab0020a1
:020000040000fa
:10465c0008b5144b9b7df3b1124a137edbb2927ded
:10466c0012f0800f18d10f4a137edbb2927d12f03c
:10467c00010f04d013f0010f01d0fef77bfe094aa5
:10468c00137edbb2927d12f0040f04d013f0040ff2
:10469c0001d0fef765fd08bd13f0800fe3d000f0ec
:0846ac007bf9e0e70020014169
:020000040000fa
:1046b40070b582b00190846ca26be36b9a4203d311
:1046c4000025284602b070bd94f8456076b20022f9
:1046d40001a92046fff720fd0546b6f1ff3f0ad1a8
:1046e400636a002bedd004f12400fef7e9fa0028f8
:1046f40018bf0125e5e701f0ebf88642e1d2013667
:0847040076b284f84560dce7a1
:020000040000fa
:10470c002de9ff41134dd1f80080af88adf80c7046
:10471c0006462868029002aca8798df80e00002a93
:10472c0018bf1446d1e901571a461bb9204600f0b0
:10473c0093ff0246002d02dbaa4228bf2a46cdf881
:10474c0000803b4621463046fff7aafa04b0bde88c
:08475c00f08100bf6459000068
:020000040000fa
:10476400f0b50c4649682368a668e76887b0002955
:104774000593a4bf23f00203059305ab02930a2318
:10478400cde900630546d2e900232046fff788fc03
:104794002269059b0093013a3346121a39182846b8
:1047a400fff782fa6b68db0503d563689842b8bfec
:0647b400184607b0f0bd3d
:020000040000fa
:0247ba00fee718
:020000040000fa
:1047bc0010b501f023f8fff7effefef799f9fff7bc
:1047cc00f1fafef7ccfcfef71fff01f00ff80948d9
:1047dc0000f040fc0849002000f07cfe074c2060f3
:1047ec0007490020fff7aefd606001f079f8fff794
:1047fc0099fa10bd00ad0020bc580000e0ac0020c0
:04480c00c858000088
:020000040000fa
:1048100070b404468ab10b7804f8013b551e7bb195
:104820008618284406e011f8015f03f8015b021bbb
:104830004db11c46a6422346f5d1204670bc7047b8
:1048400023462a460446002af7d01a44002100bf16
:1048500003f8011b9a42fbd1002c08bf14462046e6
:0448600070bc704771
:020000040000fa
:1048640038b503681b680e4940689847c022002188
:104874000c4800f07dff0c4b186868b11c460025fd
:104884006368834207bf656025608368236001f025
:1048940047f820680028f3d1044b01221a6038bd80
:1048a400344d0000f4a90020d8ac0020f0ac002066
:020000040000fa
:1048b40008b583b2cbb9184603eb43020f4b03eba5
:1048c40082035a68a2b100eb40000c4b03eb80005a
:1048d400536a8068984701280cd043b263b1022818
:1048e4000cbf01204ff0ff3008bd4ff0ff30fbe755
:1048f4000020f9e70220f7e70020f5e7acac002040
:020000040000fa
:1049040010b582b00c4b01930124009400234ff4a2
:1049140080720a490a48fdf7aff90a4b01930094e3
:1049240000234ff4806208490848fdf7a5f9fff712
:10493400a3fc02b010bd00bf08ad0020fc54000071
:104944003958000004ad00200c5500004559000002
:020000040000fa
:1049540070b5e8b10546a0fb0132e2b901fb00f0f5
:1049640010f14d0f19d80c464c30fff717f90646d5
:1049740078b114b100f14c0300e003463360f563f1
:10498400346401213046fef765ff0023b36400e080
:0e4994000026304670bd0026fbe70026f9e73e
:020000040000fa
:0249a200fee72e
:020000040000fa
:1049a40008b5104b5b8b13f0070300d108bd0e4a0a
:1049b400d3870c4b80221a7607225a831b7e13f06e
:1049c400040f05d0074b9a6a1a7e12f0040ffad12d
:1049d400054b1b6a002be9d0034b596a1b6a022062
:0c49e4009847e3e700200141b4ab00203d
:020000040000fa
:1049f000c1f30a5340f21e42d21a0edd202a0ad811
:104a0000cb0243ea505040f00040d04090eae170c1
:104a1000b0ebe1707047002070474b00004218bfb8
:104a200043f0010313f5001f88bf21f0004111f08e
:0a4a3000004058bf6ff000407047cf
:020000040000fa
:024a3a00fee795
:020000040000fa
:104a3c0030430000335400000300000034430000f6
:104a4c000556000003000000384300009553000099
:104a5c00030000003c4300008d54000003000000e4
:104a6c0040430000315000000400000048430000a7
:084a7c000150000004000000dd
:020000040000fa
:104a840010b50e4b1a6842f460021a601a6842f0bc
:104a940060421a6000f0a8fb0024094b1c6000f07f
:104aa40049fe084a136843f04043136000f088fb52
:104ab400fef7b8fc00f08cfc204610bd20ed00e0b1
:084ac40064ad002034ef00e0b6
:020000040000fa
:104acc0070b50e4604460f4d08b92c6844b120460b
:104adc003146fff727fa044423781bb92b601c4698
:104aec00204670bd31462046fff79afa20442860d4
:104afc00037823b1431c2b6000230370f0e72b6079
:084b0c00eee700bf54ad0020ec
:020000040000fa
:104b140010b50278202a034600f10100f9d0a2f171
:104b240009010429f5d92b2a07d02d2a11d10121f5
:104b34000133013b00200a2403e00021f8e760432d
:104b4400801a13f8012f303a092af8d901b94042e2
:064b540010bd0021ede799
:020000040000fa
:024b5a00fee774
:020000040000fa
:104b5c0010b5054c227832b9044b13b10448aff3ad
:104b6c0000800123237010bdf4ab00200000000076
:104b7c000000000008b5034b1bb103490348aff319
:104b8c00008008bd00000000f8ab00200000000011
:020000040000fa
:104b9c0070b590b915460c460b4800f0bdfd78b1c8
:104bac00094e56f8083b1b68294620469847044690
:104bbc00304600f0fcfc204670bd4ff0ff34fae7a5
:0c4bcc004ff0ff34f7e700bfa0ac002062
:020000040000fa
:104bd80070b590b915460c460b4800f09ffd78b1aa
:104be800094e56f8083bdb68294620469847044694
:104bf800304600f0defc204670bd4ff0ff34fae787
:0c4c08004ff0ff34f7e700bfa0ac002025
:020000040000fa
:104c140030b50d4a002300bf12f8134024b902eb4b
:104c240043035b78184630bd01680d78a54209bf7f
:104c340002eb430301335b78013114bfdbb2016043
:0c4c44000a2be9d9eee700bfbe560000c5
:020000040000fa
:104c50004ff4001c1ceb410f98bf1ceb430f11d805
:104c600051ea030c50ea4c0c5cea020c0cd004d262
:104c700082428b418041013070479042994180418e
:0c4c800001307047002070470120704791
:020000040000fa
:104c8c0070b50b480b4d4ff6ff76016821b94368a0
:104c9c0013b900f098fc70bd83684268334000f192
:104cac000c0455f823302046984704eb8000ece7c1
:084cbc007c1a000060570000a3
:020000040000fa
:104cc4004ff4001c1ceb410f98bf1ceb430f11d891
:104cd40051ea030c50ea4c0c5cea020c0ad004d2f0
:104ce40082428b41804140427047904299418041c9
:084cf4004042704700207047a8
:020000040000fa
:104cfc004ff4001c1ceb410f98bf1ceb430f11d859
:104d0c0051ea030c50ea4c0c5cea020c0ad004d2b7
:104d1c009042994180414042704782428b41804190
:084d2c0040427047002070476f
:020000040000fa
:104d34000d0a202a2a2a205175697474696e672025
:104d440074686520436f6d6d616e642050726f638b
:104d54006573736f722e20427965202a2a2a0d0a00
:044d6400000000bf8c
:020000040000fa
:104d680038b570b90a4800f0d9fc68b1084c54f855
:104d7800083b1b6998470546204600f01afc284660
:104d880038bd4ff0ff35fae74ff0ff35f7e700bfc2
:044d9800a0ac0020ab
:020000040000fa
:104d9c0038b570b90a4800f0bffc68b1084c54f83b
:104dac00083b5b6998470546204600f000fc284606
:104dbc0038bd4ff0ff35fae74ff0ff35f7e700bf8e
:044dcc00a0ac002077
:020000040000fa
:104dd00038b570b90a4800f0a5fc68b1084c54f821
:104de000083b9b6898470546204600f0e6fb2846ae
:104df00038bd4ff0ff35fae74ff0ff35f7e700bf5a
:044e0000a0ac002042
:020000040000fa
:104e040038b570b90a4800f08bfc68b1084c54f806
:104e1400083b5b6898470546204600f0ccfb2846d3
:104e240038bd4ff0ff35fae74ff0ff35f7e700bf25
:044e3400a0ac00200e
:020000040000fa
:104e380060b908b50a4b93f9003053b1084b5b6869
:104e480053b19b6806488068984708bd4ff0ff300b
:104e580070474ff0ff30f8e74ff0ff30f5e700bf3d
:044e6800acac0020ce
:020000040000fa
:104e6c0060b908b50a4b93f9003053b1084b5b6835
:104e7c0053b1db68064a9068984708bd4ff0ff3085
:104e8c0070474ff0ff30f8e74ff0ff30f5e700bf09
:044e9c00acac00209a
:020000040000fa
:104ea00060b908b50a4b93f9003053b1084b5b6801
:104eb00053b15b6906488068984708bd4ff0ff30e2
:104ec00070474ff0ff30f8e74ff0ff30f5e700bfd5
:044ed000acac002066
:020000040000fa
:104ed40010b540b90a4b4ff080521a60bff34f8fa0
:104ee400bff36f8f10bd044600f0acfc00212046d8
:104ef400fef796f9fdf784f80028f3d1eae700bf3e
:044f040004ed00e0d8
:020000040000fa
:104f080030b40d68b5f1ff3f02d000f1080202e0ad
:104f1800026904e01a4653681c68ac42fad953681f
:104f28004b6099608a6051600861036801330360cf
:044f380030bc7047d2
:020000040000fa
:104f3c004ff4001c1ceb410f98bf1ceb430f0cd81b
:104f4c0050ea410c08bf52ea430c08d0904208bf0b
:104f5c0099420cbf012000207047002070470120af
:024f6c0070478c
:020000040000fa
:024f6e00fee75c
:020000040000fa
:104f700008b5002240f201112020fff7ebfc054ba1
:104f800098640548fef736f800220449104600f000
:104f90006ffa08bd68ab002000a80020a936000009
:020000040000fa
:104fa0000a4b586c20f4605020f018004004400c6c
:104fb0009b6913f0010f08d0044a936923f00103a1
:104fc0009361936913f0010ffbd170470004004215
:020000040000fa
:104fd00000b583b08df80710084b5888fff76afcbe
:104fe000022802d003b05df804fb01220df1070195
:104ff000024b5888fff754fff4e700bfe8ac0020ed
:020000040000fa
:10500000c2698369d21a00d1704770b584b0044672
:1050100006684568054901a800f0b6fa336801a999
:1050200028469847e369a36104b070bd3459000075
:020000040000fa
:10503000f0b585b000f120058269521b01d105b0a1
:10504000f0bd044607684668044901a800f09cfad0
:105050003b6801a930469847a561f0e73c5900003c
:020000040000fa
:10506000024660b1074900680860074800230360f2
:10507000436052884a80054a13600120704700202f
:10508000704700bfe8ac0020d8ac0020f0ac002096
:020000040000fa
:1050900053b94ab9002908bf00281cbf4ff0ff319f
:1050a0004ff0ff3000f06abcadf1080c6de904cea2
:1050b000fcf75cf9ddf804e0dde9022304b0704799
:020000040000fa
:1050c000000300009d5100009d4b0000054e0000b4
:1050d000d14d0000d94b0000694d00009d4d0000ee
:0c50e00077390000295800009d2d0000c9
:020000040000fa
:1050ec004ff0807340f8043c21f0010140f8081c9b
:1050fc00054b40f80c3c40f8202c6ff0020340f8b4
:0c510c00243c4438704700bfd55300001d
:020000040000fa
:1051180008b54ff0200383f31188bff36f8fbff3f7
:105128004f8ffcf7a1fe18b1034b4ff080521a6065
:0c513800002383f3118808bd04ed00e0a3
:020000040000fa
:1051440000b553ec112b83b051ec100b8ded002bfb
:10515400fdf714fa9ded002b53ec122bfcf762fac9
:0c51640041ec100b03b05df804fb00bf31
:020000040000fa
:10517000802910db812901dd83290cd113680733d5
:1051800023f0070303f108011160d3e90023c0e90c
:0a5190000023012070470020704743
:020000040000fa
:02519a00fee72e
:020000040000fa
:10519c0060b910b50c46064800f0fdf9012804d1a1
:1051ac002268044b1a6001221a7110bd704700bfaf
:0851bc00a8ac0020a0ac00200b
:020000040000fa
:1051c40008480068006880f308884ff0000080f306
:1051d400148862b661b6bff34f8fbff36f8f00dfe1
:0851e40000bf000008ed00e02f
:020000040000fa
:1051ec00054b00221a6005490a60054a0549116001
:1051fc0007221a60704700bf10e000e018e000e0e2
:08520c0014e000e0bfd4010032
:020000040000fa
:10521400074b1b681b6823b9064b4ff0ff321a601b
:105224007047034b1b68db681a68024b1a607047af
:0852340018ad002038ad002088
:020000040000fa
:10523c0030b57ab101380a4410f8013f0d4633b14c
:10524c0011f8014b1cb1914201d0a342f4d02a7841
:08525c00981a30bd1046fce772
:020000040000fa
:1052640038b50569954228bf154604465db12a46fe
:10527400406900f06bf9636922692b44551b0022d5
:08528400636125611a7038bd59
:020000040000fa
:10528c00e84200001d560000f04200000043000000
:10529c00654800000443000020430000d9220000b0
:0452ac002843000093
:020000040000fa
:1052b000bff34f8f0549ca6802f4e062044b134301
:1052c000cb60bff34f8f00bffde700bf00ed00e0f4
:0452d0000400fa05d7
:020000040000fa
:0c52d40008200800080000000d0a3e0041
:020000040000fa
:1052e000074b19680868b0e8f04f80f30988bff3ee
:1052f0006f8f4ff0000080f311887047aff300808c
:0453000014ad0020c8
:020000040000fa
:10530400026c72b110b5c3681344c3608468a342cd
:1053140024bf0368c3600c46c168204600f016f938
:0453240010bd704701
:020000040000fa
:1053280010b5024600210120fff710fb044638b1f2
:10533800002181600160c1600b460a46fcf716ff38
:04534800204610bd2e
:020000040000fa
:10534c000369416882688a60416851605a68824288
:10535c0004bf82685a60002202611a68013a1a601e
:04536c001868704706
:020000040000fa
:1053700008b5074b1b7813b1012b06d008bdfff70a
:10538000f7fd034b01221a70f8e7fef7f5faf5e78f
:0453900060ad0020ec
:020000040000fa
:105394008269c3699a420ad210b5044603681b683d
:1053a400096840689847a3690133a36110bd704739
:020000040000fa
:1053b40000b583b001220df10701044b5888fff7b3
:1053c40039fd9df8070003b05df804fbe8ac00204c
:020000040000fa
:1053d40082b0002301934ff0200383f31188bff3bd
:1053e4006f8fbff34f8f019b002bfcd002b070472f
:020000040000fa
:1053f4004ff0200383f31188bff36f8fbff34f8ff8
:10540400024a136801331360704700bf64ad002083
:020000040000fa
:1054140008b54ff6ff73994208bf4ff0ff3100689b
:0e542400fdf702f8012814bf0020012008bd8a
:020000040000fa
:1054320008b5d0f8d4303bb11968d0f8cc308b42e3
:0e54420001d0fef778f908bdd0f8cc10f9e7dc
:020000040000fa
:1054500010b50023934206d113f0030018bf0120ba
:0e54600000eb930010bdc45ccc540133f2e7a6
:020000040000fa
:02546e00704785
:020000040000fa
:1054700010b429b1044b43f8301003ebc0035a6059
:0c5480005df8044b704700bf90ac0020aa
:020000040000fa
:10548c0008b5836900f12002934206d90268013bfa
:0c549c008361136809684068984708bde8
:020000040000fa
:1054a80010b50c46084600f0d9f802462146024bd2
:0c54b8005888fff7f1fc10bde8ac0020a4
:020000040000fa
:1054c4000d0a202a2a2a2053797374656d205265a7
:0c54d400626f6f74202a2a2a0d0a000063
:020000040000fa
:1054e0004a68044b1a60044b0a895a8002221a70d7
:0c54f00000207047f8ac0020fcac00204d
:020000040000fa
:1054fc005359535f434d445f5441534b5300000089
:0c550c004150505f5461736b730000bf8e
:020000040000fa
:1055180010b50c46044b19681831fff7f1fc01214e
:0c5528002046fdf77bfe10bd14ad0020f6
:020000040000fa
:10553400054b1b6823b1044b1a68936c01339364c5
:0c554400014b1868704700bf14ad002038
:020000040000fa
:105550005ab110b40a44431e11f8014b03f8014f2d
:0c5560009142f9d15df8044b7047704790
:020000040000fa
:10556c0013b50446019201aafbf776fd636813f0ac
:0c557c00100f18bf4ff0ff3002b010bd40
:020000040000fa
:105588000eb403b503aa52f8041b019200f0bcf94b
:0a55980002b05df804eb03b07047a9
:020000040000fa
:1055a20003680bb10020704710b504460120fff7d5
:0855b200bafe2060012010bdcb
:020000040000fa
:1055ba0008b500231a4619460068fcf7d6fd0128eb
:0855ca0014bf0020012008bd00
:020000040000fa
:0255d200704720
:020000040000fa
:1055d400044a9368d06883423ebf024a12699b180a
:0855e400181a7047b4ab002057
