:020000040000fa
:10000000f08b012021720501a97d0501af7d05015d
:10001000bb7d0501c17d0501c77d05010000000014
:10002000000000000000000000000000899c0401a6
:10003000b57d050100000000a99d0401179e040183
:1000400003c40401e51f050103c40401c9ca040176
:1000500003c4040103c4040103c4040103c4040170
:1000600003c4040103c4040103c4040103c4040160
:10007000793e030103c404018940040103c404015f
:1000800003c4040103c4040103c4040103c4040140
:1000900003c404012508050103c4040103c40401c9
:1000a00003c4040103c4040103c4040103c4040120
:1000b00003c4040103c4040103c4040161dc03019b
:1000c00001dd030103c4040103c4040103c40401ea
:1000d00003c4040103c404017528050103c4040119
:020000040000fa
:020000040004f6
:045f8800ffff000017
:020000040000fa
:020000040004f6
:045f8c0000400e843f
:020000040000fa
:020000040004f6
:045f900038fc665f14
:020000040000fa
:020000040004f6
:045f94003844160671
:020000040000fa
:020000040004f6
:045f98000300007191
:020000040000fa
:020000040004f6
:045f9c000000000001
:020000040000fa
:020000040004f6
:045fbc0000000010d1
:020000040000fa
:020000040100f9
:1040000000100a001cb200200000000000000000a8
:10401000002032008cad00200000000000000000f5
:10402000012032008cad00200000000000000000e4
:10403000022032008cad00200000000000000000d3
:10404000032032008cad00200000000000000000c2
:10405000042032008cad00200000000000000000b1
:10406000052032008cad00200000000000000000a0
:10407000062032008cad002000000000000000008f
:10408000072032008cad002000000000000000007e
:1040900008202000c0ad002000000000000000004b
:1040a00009202000c0ad002000000000000000003a
:1040b0000a202000c0ad0020000000000000000029
:1040c0000b202000c0ad0020000000000000000018
:1040d0000c202000c0ad0020000000000000000007
:1040e0000d202000c0ad00200000000000000000f6
:1040f0000e202000c0ad00200000000000000000e5
:104100000f202000c0ad00200000000000000000d3
:10411000f8b500bff8bc08bc9e4670477575050130
:10412000f8b500bff8bc08bc9e4670475175050144
:020000040000fa
:020000040100f9
:0841300040ad04000100000095
:020000040000fa
:020000040100f9
:1041380080b483b000af786039607a683b68134414
:10414800c3f3160318460c37bd465df8047b704769
:1041580080b483b000af786039607a683b68d31a5e
:10416800c3f3160318460c37bd465df8047b704749
:1041780080b483b000af786039607a683b68d31a3e
:10418800c3f3160318460c37bd465df8047b704729
:1041980080b483b000af786039607a683b68d31a1e
:1041a80003f48003002b01d0012300e0002318460c
:1041b8000c37bd465df8047b704780b483b000af10
:1041c800786039607a683b685340c3f31603002b64
:1041d80001d1012300e0002318460c37bd465df8e5
:1041e800047b704790b583b000af7860786853f06f
:1041f800a3fe02460b464cf001f903460c4618464e
:1042080021464ff000020c4b4cf068fe03460c466a
:1042180044ec173bb0ee470af0ee670a51f060f83d
:1042280054ec103b1846214653f0defd0346184671
:104238000c37bd4690bd00bf0088834080b483b072
:1042480000af78607b6840f2712202fb03f35b08e1
:1042580018460c37bd465df8047b704790b587b0ab
:1042680000af78607b68db88fb827b6808333b6142
:10427800fb8a23f0ff03fb81fb8adbb2bb81fb894e
:10428800002b03d0b3f5807f06d00be0bb893969da
:10429800184600f015f805e0bb893969184600f0a2
:1042a800d1f800bf054b1c6805f04ef9034684f8a9
:1042b800343300bf1c37bd4690bd00bf80b200201c
:1042c80080b58eb000af03463960fb80fb88132ba6
:1042d80000f2b28001a252f823f000bf354300017a
:1042e800414400016b430001414400014144000185
:1042f80073430001d1430001d9430001e1430001a8
:10430800414400014144000141440001414400018d
:1043180041440001f9430001f34300012144000135
:10432800414400013f44000139440001444b1b68eb
:1043380093f82633002b10d03b681b687b637b6b9c
:104348003b6307f110033a6b1a6007f1100304226c
:104358000021002041f03bfa6ee0386800f050fc84
:104368006ae0386804f0b6fa66e0354b1b6893f8e3
:104378002633002b24d03b681b68fb62304b1b683c
:10438800d3f8a432002b17d0fb6a9a7a2c4b1b68ff
:10439800d3f8a4329b7a9a420ed8fb6abb6207f123
:1043a8000c03ba6a1a6007f10c03042205210020e5
:1043b80041f00dfa00bf3fe0386800f00fff3be026
:1043c800386800f00bff37e0386803f0edfa33e0a7
:1043d800386802f06bfd2fe03b6804331b68dbb2e2
:1043e8001946386802f07dfd26e003f0a9f923e0bc
:1043f8003b681b6887f827303b6804331b683b62bf
:104408003b6808331b68fb6197f82730fa69396afb
:10441800184600f03bff0fe03b681b68bb613b6838
:1044280004331b687b617969b86904f0abff03e06a
:104438003af090f900e000bf00bf3837bd4680bdb4
:1044480080b2002080b588b000af03463960fb8099
:10445800fb880e2b59d801a252f823f0a144000181
:10446800a94400011345000113450001134500014b
:1044780013450001134500011345000113450001d0
:10448800c7440001cd440001db440001e1440001c0
:10449800bf440001ef440001386800f0b1fb34e08c
:1044a8003b68043319683b6808331a680023386886
:1044b80004f056f929e0386804f06afb25e004f0b6
:1044c80097f822e03b681b68fb61f86904f0ccf8b8
:1044d8001be004f0e9f818e03b681b68bb61b869a9
:1044e80004f01ef911e03b681b68fb753b68043358
:1044f8001b683b613b6808331b68fb60fb7dfa68ff
:104508003969184600f0c2fe00bf00bf2037bd461b
:1045180080bd80b582b000af4ff088431b6c03f4b8
:104528004053b3f5005f06d1354b1b6840f6523255
:10453800a3f8202305e0324b1b6840f26242a3f83f
:104548002023304b1b684ff4b4621a812c4b1b6834
:104558004ff4a562a3f82223294b1b684ff4f0728d
:10456800a3f82423274b1b684ff4f0725a8151f0ab
:104578007bfa0346fb71234b1b681b891a46fb79a0
:104588001b09dbb292fbf3f21e4b1b6892b21a8135
:104598001b4b1b68b3f822331a46fb791b09dbb2a5
:1045a80092fbf3f2164b1b6892b2a3f82223144b2a
:1045b8001b68b3f824331a46fb791b09dbb292fb5c
:1045c800f3f20f4b1b6892b2a3f824230d4b1b6820
:1045d8005b891a46fb791b09dbb292fbf3f2094ba4
:1045e8001b6892b25a81074b1b681a89054b1b68d6
:1045f800b13292b21a8100bf0837bd4680bd00bff4
:1046080080b2002084b2002080b582b000af2f4b6a
:104618001b684ff4c362a3f822232c4b1b6840f29b
:10462800ec42a3f824232a4b1b684ff434621a8106
:10463800274b1b6840f2dc525a8151f015fa0346a9
:10464800fb71234b1b681b891a46fb791b09dbb2dc
:1046580092fbf3f21e4b1b6892b21a811b4b1b682c
:10466800b3f822331a46fb791b09dbb292fbf3f24b
:10467800164b1b6892b2a3f82223144b1b68b3f89d
:1046880024331a46fb791b09dbb292fbf3f20f4b7a
:104698001b6892b2a3f824230d4b1b685b891a464a
:1046a800fb791b09dbb292fbf3f2094b1b6892b250
:1046b8005a81074b1b681a89054b1b68b13292b2a5
:1046c8001a8100bf0837bd4680bd00bf80b20020f8
:1046d80084b2002080b582b000af8c4a002100204f
:1046e8004ef00cf9894a002101204ef007f94ff4e9
:1046f8004f7053f041fa0246854b1a60844b1b6891
:104708004ff44f720021184653f016fd0c2053f059
:1047180033fa02467f4b1a607d4b1b680c2200213e
:10472800184653f009fd00237b6061e0784b1a6856
:104738007b68134403f5257300221a70744b1b68b9
:104748007a68a632002143f8221000233b602de04e
:104758006f4b19687a6813465b0013449b00134437
:104768003a6813443833db000b4400225a60684b24
:104778001968674b18687a6813465b0013449b00f6
:1047880013443a6813443833db000b44191d7a6824
:1047980013465b0013449b0013443a6813443833b0
:1047a800db00034499603b6801333b603b680c2b9a
:1047b800cedd574b1b687a685532002143f832101a
:1047c800534b1a68524b19687b685533db001a44ff
:1047d8007b685533db000b445a604d4b1a687b6885
:1047e800134403f52e7300221a707b6801337b6033
:1047f8007b68012b9add464b1b680022c3f8a02278
:10480800434b1b680022c3f8a422414b1b680022bb
:1048180083f8c0213e4b1b680022c3f880213c4b23
:104828001a683b4b1b6802f5c072c3f88421002349
:104838007b6040e0364b19687a6813465b00134486
:104848009b000b440c220021184653f075fc304b9a
:1048580019687a6813465b0013449b000b440022d6
:104868001a602b4b1b682a4a1068d3f884117a689f
:1048780013465b0013449b00034404331960244b24
:104888001868234b1b68d3f884117a6813465b00b9
:1048980013449b0003440b601d4b18681c4b19689c
:1048a8007a6813465b0013449b000344c1f88431c3
:1048b8007b6801337b607b681f2bbbdd00237b603b
:1048c8000de0134b1a687b683133db001344082270
:1048d8000021184653f030fc7b6801337b607b680d
:1048e800062beeddfff715fe094b1b68012283f846
:1048f8003423002046f03cfa054b1b680022c3f81d
:10490800382346f03ffb00237b6017e06542000137
:1049180080b2002084b200202c4b1a687b68ae332a
:104928009b00134400225a60284b1b687a68bc32eb
:10493800002143f822107b6801337b607b680b2bd6
:10494800eadd224b1b68002283f8bb221f4b1b6841
:10495800002283f8ba221d4b1b68002283f8ec2240
:104968001a4b1b68002283f8ed22184b1b680022a3
:1049780083f82623154b1b68002283f82723134b43
:104988001b68002283f82823104b1b68002283f839
:1049980029230e4b1b680022c3f82c230b4b1b68e2
:1049a8000022c3f830230a4b1b6800221a60084b08
:1049b8001b6800225a60074846f0bef9064846f0d0
:1049c800abf900bf0837bd4680bd00bf80b20020ec
:1049d80084b20020b5e40401c9e5040180b485b0bf
:1049e80000af786039607b681b68bb607b685b6878
:1049f800fb603b681a687b681a603b685a687b688a
:104a08005a60ba683b681a60fa683b685a6000bf27
:104a18001437bd465df8047b704780b588b000af99
:104a2800f860b9607a607b68db00fa6813441b6839
:104a38007b61bb68013bfb61bb68bb611ce0bb6978
:104a4800db00fa6813441b6879691846fff7a0fb76
:104a58000346002b0dd0fb690133fb61fb69db00ca
:104a6800fa68d018bb69db00fa6813441946fff7e7
:104a7800b5ffbb690133bb617a68bb699a42dedc6a
:104a8800fb690133db00fa68d0187b68db00fa6841
:104a980013441946fff7a2fffb6901331846203774
:104aa800bd4680bd80b586b000aff860b9607a6059
:104ab800ba687b689a4213da7a68b968f868fff7c7
:104ac800acff78617b69013b1a46b968f868fff763
:104ad800e9ff7b6901337a681946f868fff7e2ff56
:104ae80000bf1837bd4680bd80b582b000af786082
:104af8000b46fb7039f058fafb78012b5ed13f4b1f
:104b08001b6893f82933012b71d07b681b7a002b23
:104b180026d17b681b6c7a689a4221d17b68db7a44
:104b2800002b0ed1354b1b6893f8b8321a46334b1d
:104b38001b6893f8b9321344012b38ddfff764fd85
:104b480035e02e4b1b6893f8b8321a462b4b1b687e
:104b580093f8b9321344022b29ddfff755fd26e0ff
:104b68007b689b6c002b04d17b681b6c7a689a422b
:104b78000ed0224b1b6893f8b8321a461f4b1b689d
:104b880093f8b9321344022b12ddfff73dfd0fe015
:104b98001a4b1b6893f8b8321a46184b1b6893f8df
:104ba800b9321344012b03ddfff72efd00e000bfef
:104bb800124b1b68012283f8292318e00f4b1b684e
:104bc80093f82933002b12d00c4b1b6893f8b8329a
:104bd8001a460a4b1b6893f8b9321344012b01dcbf
:104be800fff797fc054b1b68002283f8292339f04f
:104bf800f5f900bf0837bd4680bd00bf80b2002070
:104c080080b5aab004af786046f07cfa7b681b6870
:104c1800c7f88c30002387f89330002387f8923048
:104c2800002387f893300de097f893309b0007f145
:104c380098021344002243f8902c97f893300133dc
:104c480087f8933097f893301f2bedd9d7f88c302d
:104c58001b68c7f89430c1e0d7f89430c7f888309b
:104c6800d7f894301b68c7f89430d7f888301b7a87
:104c7800002b14d1d7f888309b7a1a46d7f8883099
:104c88005b7f03930292d7f888300193734b0093ac
:104c9800022302227e21ec2037f0a6fc13e0d7f88d
:104ca80088309b7a1a46d7f888305b7f0393029244
:104cb800d7f8883001936a4b0093022302227f21a0
:104cc800ec2037f091fcd7f8880003f065fed7f8a0
:104cd80088301b7a012b06d139f004fb0246d7f83d
:104ce8008830c3f8a820d7f88830012283f85020ec
:104cf800d7f888301a7ad7f8883083f85120d7f84f
:104d080088309a7ad7f8883083f85220d7f88830d4
:104d18000022c3f88420d7f8882092f880306ff3f7
:104d2800020382f88030d7f88830002283f8812087
:104d3800d7f888300522a3f88220d7f888300022d7
:104d4800c3f89c20d7f8882092f898306ff30203b4
:104d580082f89830d7f88830002283f89920d7f85d
:104d680088301222a3f89a20d7f8883000225a6592
:104d7800d7f8883000229a653a4b1b681a89d7f809
:104d88008830a3f87020384b1b68b3f82223d7f873
:104d98008830a3f87220344b1b68b3f82423d7f863
:104da8008830a3f874202f4b1b685a89d7f88830ad
:104db800a3f8762097f892309b0007f198021344e5
:104dc800d7f8882043f8902c97f89230013387f869
:104dd8009230d7f88810002049f08afad7f8943032
:104de800002b7ff439af786803f0d2fe39f0dcf895
:104df800002387f8933024e097f893309b0007f15d
:104e08009802134453f8903c184600f02ff897f88e
:104e180093309b0007f19802134453f8903c187a9a
:104e280097f893309b0007f19802134453f8903c8d
:104e38000022194602f074f997f89330013387f885
:104e4800933097f8932097f892309a42d4d339f058
:104e5800c5f800bf9837bd4680bd00bfe04a0501d0
:104e6800144b050184b2002080b2002080b584b0c4
:104e780000af78607b68fb60fb68002283f84d20f8
:104e8800fb68002283f84e20fb68002283f84f203d
:104e9800fb6800221a77fb685b7a002b02d0f8685f
:104ea80000f0def8f86800f005f80023184610371f
:104eb800bd4680bd90b585b000af78607b68fb606b
:104ec80004f0c2fab860fa68bb689a6039f06cf806
:104ed800bb6800221a60294b1968fb681b7a1a46be
:104ee800fb689b7a184613465b0013449b001344e7
:104ef80003443833db000b449a68bb685a601f4b85
:104f08001968fb681b7a1a46fb689b7a1846134691
:104f18005b0013449b00134403443833db000b4409
:104f28009b68ba681a60154b1868fb681b7a1a46a2
:104f3800fb689b7a1c46b96813465b0013449b00c8
:104f4800134423443833db00034499600b4b1b683c
:104f5800fa68127a991891f894120131c9b2134477
:104f68000a4683f89422fb68012283f84d2039f021
:104f780035f8002318461437bd4690bd80b200208e
:104f880090b585b000af7860344b19687b681b7aa0
:104f98001a467b689b7a184613465b0013449b00ad
:104fa800134403443833db000b445b68fb604ce07c
:104fb80038f0fafffb68bb60fb681b68fb6039f0e0
:104fc8000df8bb68002b40d0bb689a687b689a4292
:104fd8003bd138f0e9ffbb681b68002b05d0bb68e4
:104fe8001b68ba6852685a6013e01c4b18687b68e3
:104ff8001b7a1a467b689b7a1c46bb68596813461d
:105008005b0013449b00134423443833db00034400
:105018009960bb685b68ba6812681a600f4b1b68b6
:105028007a68127a991891f894120139c9b213441e
:105038000a4683f894227b68002283f84d2038f0d2
:10504800cdffb86804f038fa02e0fb68002bafd156
:10505800002318461437bd4690bd00bf80b200201b
:1050680080b586b000af78602d4b1b687a68127add
:10507800553253f832307b610023fb740ae07b69b8
:105088009a687b689a4202d10123fb7405e07b6928
:105098001b687b617b69002bf1d1fb7c002b36d12f
:1050a80004f0d2f9f8607a68fb689a6038f07cffff
:1050b800fb6800221a601a4b1a687b681b7a553302
:1050c800db0013445a68fb685a60154b1a687b6802
:1050d8001b7a5533db0013445b68fa681a60104b7f
:1050e80019687b681b7afa685533db000b445a60f1
:1050f8000b4b1b687a68127a991891f8b81201312b
:10510800c9b213440a4683f8b82238f067ff012170
:105118007868fff7e9fc002318461837bd4680bdbc
:1051280080b2002080b584b000af78602a4b1b683d
:105138007a68127a553253f83230fb6040e038f022
:1051480033fffb68bb60fb681b68fb6038f046fff9
:10515800bb68002b34d0bb689a687b689a422fd111
:1051680038f022ffbb681b68002b05d0bb681b68a2
:10517800ba6852685a600be0174b19687b681b7a4b
:105188001846bb685a6800f15503db000b445a60a7
:10519800bb685b68ba6812681a600f4b1b687a684c
:1051a800127a991891f8b8120139c9b213440a460b
:1051b80083f8b82238f012ffb86804f07df902e0ed
:1051c800fb68002bbbd100217868fff78dfc00bf7e
:1051d8001037bd4680bd00bf80b2002080b582b0c8
:1051e80000af7860786800f004f800bf0837bd4663
:1051f80080bd80b584b000af78607b681b68fb60b9
:10520800fb681b7a012b08d11f4b1b685a681e4b81
:105218001b6842f001025a6007e01b4b1b681a68c2
:10522800194b1b6842f001021a60fb6893f84e3074
:1052380003f00203002b19d1fb685b6d002b0bd028
:10524800fb685b6dbb60bb6893f84f3043f00803a5
:10525800dab2bb6883f84f20f868fff707fefb68ef
:105268001b7a0022f968184600f010f8fb6893f8da
:105278004e3023f00203dab2fb6883f84e2000bff9
:105288001037bd4680bd00bf84b2002080b588b00d
:1052980000af0346b9607a60fb730023bb6100234b
:1052a8007b6100233b619e4b1b68fa7ba63253f857
:1052b8002230002b0cd09a4b1b68fa7ba63253f88d
:1052c800223093f84d30022b02d102f026fae9e1a0
:1052d800fb7b002b40f0d980914b1b6893f89432ec
:1052e800002b00f0df810c23fb77c8e08c4b1a6899
:1052f80097f91f303833db0013445b68bb61abe0c0
:10530800bb697b61bb691b68bb617b699b683b614f
:105318003b695b7a012b65d1824b1b681a68814b0c
:105328001b6842f002021a603b699b7b002b12d17a
:105338003b691b6c3a699a4203d1386901f034fa27
:1053480009e03b6993f8503003f00103002b02d0c9
:10535800386901f07cf83b699b7b002b24d0714baa
:105368001b681a686f4b1b6822f004021a60bb683e
:10537800002b15d03a69bb689a4211d0bb6893f8e4
:105388004d30012b0cd1b868fff7fafdbb689b6a5a
:10539800002b02d0b86838f011ffb86801f0befde4
:1053a800386901f039fb7de15e4b1b681a685d4b7b
:1053b8001b6842f004021a603b699b6c002b45d0c5
:1053c8003b6993f8503003f00103002b03d0386990
:1053d800fff7d6fd3ae03869fff7d2fd386901f0ea
:1053e8009dfd33e04f4b1b681a684e4b1b6842f417
:1053f80080421a603b6993f85c30002b04d13b690a
:10540800b3f85e30002b0cd03869fff7b9fd3b6963
:105418009b6a002b02d0386938f0d0fe386901f059
:105428007dfd3b6993f85c30002b0fd13b69b3f8e5
:105438005e30013b9ab23b69a3f85e203b69b3f842
:105448005e30002b02d13b6901225a72344b1b6833
:1054580093f89432002b04d0bb69002b7ff450af33
:1054680000e000bf2e4b1b6893f89432002b00f02d
:10547800168197f91f30dbb2013bdbb2fb7797f956
:105488001f30002bbff632af0ce1254b1b6893f899
:105498009532002b00f006810c23fb77f9e0204bb6
:1054a8001a6897f91f304533db0013445b68bb610a
:1054b800dde0bb697b61bb691b68bb617b699b687d
:1054c8003b613b695b7a012b40f092803b6993f822
:1054d8004f3003f00403002b05d04df04bfa034680
:1054e800002b00d0c3e00f4b1b685a680d4b1b689c
:1054f80042f002025a603b691b6c3a699a4222d117
:105508003b699b6c002b06d03b695b7f83f00103f2
:10551800dbb2002b08d07968386900f0cbf812e0cc
:1055280080b2002084b200203b699b6c002b0ad01b
:105538003b6993f8503003f00103002b03d07968de
:10554800386900f0b7f83b699b7b002b2fd0574b8d
:105558001b685a68554b1b6822f004025a60bb68e6
:10556800002b20d03a69bb689a421cd0bb6893f8dc
:105578004d30012b17d1bb6893f8503003f001036d
:10558800002b03d0bb6800229a730ce0b868fff7c1
:10559800f7fcbb689b6a002b02d0b86838f00efe97
:1055a800b86801f0bbfc386901f036fa7ae03f4b85
:1055b8001b685a683d4b1b6842f004025a603b69fd
:1055c8009b6c002b4dd03b6993f8503003f00103de
:1055d800002b46d13869fff7d3fc3b699b6a002b47
:1055e80002d0386938f0eafd386901f097fc38e0f4
:1055f8002e4b1b685a682d4b1b6842f480425a6038
:105608003b6993f85c30002b04d13b69b3f85e30fa
:10561800002b0cd03869fff7b3fc3b699b6a002b61
:1056280002d0386938f0cafd386901f077fc3b6967
:1056380093f85c30002b14d13b69b3f85e30002b33
:105648000fd03b69b3f85e30013b9ab23b69a3f8cf
:105658005e203b69b3f85e30002b02d13b69012222
:105668005a72134b1b6893f89532002b04d0bb6910
:10567800002b7ff41eaf00e000bf0d4b1b6893f8b2
:105688009532002b0dd097f91f30dbb2013bdbb20e
:10569800fb7797f91f30002bbff601af02e000bf80
:1056a80000e000bf2037bd4680bd00bf84b20020a7
:1056b80080b2002090b5c1b004af786039607b68d3
:1056c8009b7b002b40f0b8800023a7f8de3007f161
:1056d800de0207f1e003114618463cf0e1fe7b6864
:1056e800db7a012b24d1d7f8e0207b68db6b1946e5
:1056f8001046fef71dfd0346c7f8e0307b681a8f99
:10570800b7f8de3013449bb2a7f8de30b7f8de30c6
:1057180040f2e14293420bd9b7f8de30a3f2e243fc
:105728009bb2a7f8de30d7f8e0300133c7f8e03095
:10573800d7f8e040b7f8de309b089bb21a467b6882
:10574800b3f8703013441846fef74cfd034619466b
:105758002046fef7edfcc7f8e8007b68d7f8e8209c
:105768001a667b689b6c1846fef73cfd0346a7f853
:10577800ee307b689b6e9ab2b7f8ee301344a7f808
:10578800ec30b7f8ec30b3f5487f0ad97b689b6eec
:105798009bb2c3f54873a7f8ee304ff44873a7f8e7
:1057a800ec307b681b6ec7f8d830002387f8e730e9
:1057b800092387f8e630002387f8d730012387f8d4
:1057c800d630d7f8d830fb60d7f8d830b7f8ec2007
:1057d80011461846fef7acfc03463b61b7f8ee10dd
:1057e80007f1d80297f8e60007f10c03029307f1d6
:1057f800d603019307f1d70300930b46796800f0ad
:10580800c6fb97f8d71097f8d620d7f8d83007f105
:105818000c0000930346786800f0d2fc034687f832
:10582800e73097f8e730002b03d07b6801229a73a2
:1058380002e07b6800229a7300bff437bd4690bd32
:1058480090b585b000af786039607b689b7b002b92
:105858004ed100237b8107f10a0207f10c031146a0
:1058680018463cf01dfe7b68db7a012b1bd1fa68d9
:105878007b68db6b19461046fef75afc0346fb6053
:105888007b681a8f7b8913449bb27b817b8940f2aa
:10589800e142934207d97b89a3f2e2439bb27b8121
:1058a800fb680133fb60fc687b899b089bb21a4646
:1058b8007b68b3f8703013441846fef793fc034630
:1058c80019462046fef734fc02467b681a667b6858
:1058d8001b7b002b05d17b681b6e5a027b681a6103
:1058e80003e07b681a6e7b681a617b6801229a73f1
:1058f80000bf1437bd4690bd90b587b000aff860c3
:10590800b9607a607b800023fb8200237b750023cb
:105918007b82fb6a1b681946f868fef739fc034668
:10592800002b40d0fb6a1b68b9681846fef730fcac
:105938000346002b34d00023fb824f4b1b681b8986
:105948001a464d4b1b685b8913444c4a82fb031271
:105958001a441212db17d31a9ab27b689bb213440b
:105968009ab2454b1b681b891946434b1b685b89d8
:105978000b44424981fb030119440912db17cb1a76
:105988009bb213449cb2fb6a1b68f9681846fef781
:10599800effb03469bb2e31a9bb202337b8232e0f1
:1059a80001237b752fe0fb6a1b681946f868fef730
:1059b800dffb0346fb82304b1b681b891a462e4bc4
:1059c8001b685b8913442d4a82fb03121a44121286
:1059d800db17d31a9ab27b689bb213449ab2264b50
:1059e8001b681b891946244b1b685b890b44234998
:1059f80081fb030119440912db17cb1a9bb213442c
:105a08009bb202337b82fa8a7b889a4201d30123b4
:105a18007b757b7d002b2ad1fb8a3b821fe03a8a6b
:105a28007b889a4222d23b8adb089bb21a46bb6a21
:105a380013441b785ab23b8a03f00703012101fa89
:105a480003f35bb213435ab23b8adb089bb2194695
:105a5800bb6a0b44d2b21a703b8a01333b823a8a42
:105a6800f98a7b8a0b449a42d9db00e000bf00bf69
:105a78001c37bd4690bd00bf84b200203f5461d1a1
:105a880080b5beb000aff860b9607a607b80002353
:105a980087f8f630bb689b6e9ab27b881344a7f8e8
:105aa800e4307b681a68b7f8e4301344c7f8e0308c
:105ab800002387f8f73088e197f8f7309b00fa68f9
:105ac80013441b68002b00f0868197f8f7309b0081
:105ad800fa6813441b685b6ec7f8dc3097f8f73038
:105ae8009b00fa6813441b68db7a012b13d197f8e3
:105af800f7309b00fa6813441b68186e97f8f73064
:105b08009b00fa6813441b68db6b1946fef720fb01
:105b1800c7f8f00008e097f8f7309b00fa681344dc
:105b28001b681b6ec7f8f030d7f8dc10d7f8f00008
:105b3800fef7fefac7f8d80097f8f7309b00fa6826
:105b480013441b68b3f87020af4ba3fb0213d21a9f
:105b5800520813441b0a9bb2591cbb68b3f8762041
:105b6800a94ba3fb0203d21a520813441b0a9bb287
:105b780001330b441946d7f8f000fef7e9fac7f8e5
:105b8800ec00bb68b3f870209f4ba3fb0213d21a3a
:105b9800520813441b0a9bb2591c97f8f7309b0014
:105ba800fa6813441b68b3f87620974ba3fb0203eb
:105bb800d21a520813441b0a9bb201330b441946ec
:105bc800d7f8d800fef7b4fac7f8e80097f8f73026
:105bd8009b00fa6813441b689b6c002b40f0c6803e
:105be80097f8f7309b00fa6813441b681a6c97f80b
:105bf800f7309b00f9680b441b689a4240f0b68066
:105c080097f8f7309b00fa6813441b685b6c1846da
:105c1800fef7e8fac7f8d4008fe07b681a68d7f86f
:105c2800e030d7f8e810d7f8ec0002f089ff034617
:105c3800002b1cd097f8f630db0007f1f80213446c
:105c4800d7f8ec2043f8e42c97f8f630db0007f19e
:105c5800f8021344d7f8e82043f8e02c97f8f63018
:105c6800013387f8f63097f8f630182b7ad097f882
:105c7800f7309b00fa6813441b685b7f83f00103cd
:105c8800dbb2002b70d1d7f8d410d7f8f000fef7ac
:105c98004ffac7f8f000d7f8dc10d7f8f000fef795
:105ca80047fac7f8d80097f8f7309b00fa6813440a
:105cb8001b68b3f87020544ba3fb0213d21a520886
:105cc80013441b0a9bb2591cbb68b3f876204e4b91
:105cd800a3fb0203d21a520813441b0a9bb20133d6
:105ce8000b441946d7f8f000fef732fac7f8ec0073
:105cf800bb68b3f87020444ba3fb0213d21a5208b6
:105d080013441b0a9bb2591c97f8f7309b00fa689a
:105d180013441b68b3f876203b4ba3fb0203d21a4b
:105d2800520813441b0a9bb201330b441946d7f897
:105d3800d800fef7fdf9c7f8e800d7f8e010d7f863
:105d4800ec00fef725fa0346002b7ff466afd7f880
:105d5800e010d7f8ec00fef730fa0346002b7ff48a
:105d68005caf29e000bf27e000bf25e07b681a6828
:105d7800d7f8e030d7f8e810d7f8ec0002f0e0feea
:105d88000346002b18d097f8f630db0007f1f8022d
:105d98001344d7f8ec2043f8e42c97f8f630db00ee
:105da80007f1f8021344d7f8e82043f8e02c97f8f5
:105db800f630013387f8f63097f8f630182b0cd008
:105dc80097f8f730013387f8f73097f8f7300b2b4f
:105dd8007ff672ae02e000bf00e000bfd7f80031e6
:105de80097f8f6201a70d7f800311b785a1e07f179
:105df800140300211846fef755fe002387f8e73004
:105e0800002387f8f730b1e07da8c2a297f8f730f1
:105e1800002b2dd17b681a6897f8f730db0007f163
:105e2800f8010b4453f8e43c19461046fef7b0f964
:105e38000346002b1cd097f8e730db00d7f8082181
:105e480013447a6812681a6097f8f73097f8e720d1
:105e5800d200d7f808110a44db0007f1f8010b4417
:105e680053f8e43c536097f8e730013387f8e7309c
:105e780097f8f720d7f800311b78013b9a423bdab4
:105e880097f8f730db0007f1f802134453f8e02cd9
:105e980097f8f7300133db0007f1f8010b4453f8aa
:105ea800e43c19461046fef773f90346002b23d04d
:105eb80097f8f73097f8e720d200d7f808110a4486
:105ec800db0007f1f8010b4453f8e03c136097f846
:105ed800f730013397f8e720d200d7f808110a44c1
:105ee800db0007f1f8010b4453f8e43c536097f8e2
:105ef800e730013387f8e73097f8f720d7f8003113
:105f08001b78013b9a422cd197f8f730db0007f158
:105f1800f802134453f8e03cd7f8e0101846fef7af
:105f280037f90346002b1cd097f8f73097f8e7208d
:105f3800d200d7f808110a44db0007f1f8010b4436
:105f480053f8e03c136097f8e730db00d7f80821f6
:105f58001344d7f8e0205a6097f8e730013387f800
:105f6800e73097f8f730013387f8f730d7f8003182
:105f78001b7897f8f7209a42fff448afd7f8043116
:105f880097f8e7201a7000bff837bd4680bd80b586
:105f98009cb004afb9607a601a460346fb73134697
:105fa800bb81002387f85f300de097f85f309b00d6
:105fb80007f160021344002243f84c2c97f85f3035
:105fc800013387f85f3097f85f300b2bedd900234a
:105fd80087f85f30fb7b03f00303002b50d0774b2f
:105fe8001b6893f8b832002b4ad037f0ddff734bab
:105ff8001b68d3f8a832bb6537f0f0ff3de037f0f7
:10600800d3ffbb6d3b65bb6d1b68bb6537f0e6ff17
:106018003b6d9a68bb689a422fd03b6d9b68fb64c6
:10602800fb6c9b7b012b28d1fb7b03f00103002b2e
:106038000cd097f85f305a1c87f85f209b0007f157
:1060480060021344fa6c43f84c2c16e0fb7b03f017
:106058000203002b11d0fb6c9a7abb689b7a9a4298
:106068000bd997f85f305a1c87f85f209b0007f11f
:1060780060021344fa6c43f84c2cbb6d002bbed164
:10608800fb7b03f03c03002b00f086804b4b1b6826
:1060980093f8b932002b7fd037f086ff474b1b6847
:1060a800d3f8b0327b6537f099ff72e037f07cffa8
:1060b8007b6dbb647b6d1b687b6537f08fffbb6caa
:1060c8009a68bb689a4264d0bb6c9b687b647b6ca3
:1060d8009b7b012b5dd1bb685a6d7b6c9a4200d1ca
:1060e80057e0fb7b03f00403002b0cd097f85f30dc
:1060f8005a1c87f85f209b0007f1600213447a6cf2
:1061080043f84c2c45e0fb7b03f01003002b12d026
:106118007b6c9a7abb689b7a9a423ad997f85f3037
:106128005a1c87f85f209b0007f1600213447a6cc1
:1061380043f84c2c2de0fb7b03f00803002b12d016
:106148007b6c9a7abb689b7a9a4222d397f85f3025
:106158005a1c87f85f209b0007f1600213447a6c91
:1061680043f84c2c15e0fb7b03f02003002b10d0e8
:10617800bb681b6c7a6c9a420bd197f85f305a1c3b
:1061880087f85f209b0007f1600213447a6c43f89c
:106198004c2c7b6d002b89d1ba8907f114003b6f19
:1061a8000293fb6e0193bb6e009313467a68b9683d
:1061b800fff766fc00bf6037bd4680bd80b2002097
:1061c80080b588b000aff8607b600b46fb72134661
:1061d800bb720023bb77ff237b77fb7a002b04d0ad
:1061e800bb7a002b01d100232de1fb689b6c002baf
:1061f80006d0fb685b7f83f00103dbb2002b3fd046
:106208007b685a687b681b6819461046fdf7b0ff23
:106218000346bb827b681b68ba6a9a422ed1ba8a47
:10622800fb685b6e9a4229d37b681a68fb681a661a
:10623800fb681b7b002b05d1fb681b6e5a02fb68b1
:106248001a6103e0fb681a6efb681a61bb8ab3f532
:10625800487f04d1fb689a6efb68da660ce0ba8a5c
:10626800fb689b6e9a4203d8ba8afb68da6603e039
:10627800fb689a6efb68da660123e4e00023e2e03b
:10628800fb7a002b0cd17b685a687b681b6819461f
:106298001046fdf76dff0346bb7700237b7740e090
:1062a8000023fb7739e0fb7fdb007a6813445868ea
:1062b800fb7fdb007a6813441b681946fdf758ff1b
:1062c80003467b837a8bfb685b6e9a4222d3fb681a
:1062d80093f84f3003f00403002b04d07b8bbb777b
:1062e800fb7f7b771de0fb681b7a012b0dd1fb68d8
:1062f8009b6c002b09d0bb7f9bb27a8b9a4209d941
:106308007b8bbb77fb7f7b7704e07b8bbb77fb7f4b
:106318007b7706e0fb7f0133fb77fa7fbb7a9a42f3
:10632800c1d37b7fff2b00f08d80fb689b7b002b0c
:1063380063d1fb681b7a012b3bd1fb689b6c002b5c
:1063480037d000237b76ba7ffb689b6e9a4228d9a8
:10635800fb6893f8503003f00103002b21d107f1bb
:1063680012030221184649f02bf97b8a1a46b97f95
:10637800fb689b6ecb1a0133b2fbf3f103fb01f30d
:10638800d31a7b767b7fdb007a6813441b687a7e9e
:1063980011461846fdf7ccfe0246fb681a6600bf98
:1063a8000ee07b7fdb007a6813441a68fb681a6684
:1063b80006e07b7fdb007a6813441a68fb681a667c
:1063c800fb681b7b002b05d1fb681b6e5a02fb6820
:1063d8001a6103e0fb681a6efb681a61fb68db7ad6
:1063e800012b0ad1fb681a6efb68db6b1946104655
:1063f800fdf79efe0246fb681a667b7fdb007a6823
:1064080013445a68fb681b6e19461046fdf7b0fe28
:106418000346fb82fb8ab3f5487f04d1fb689a6e7a
:10642800fb68da660ce0fa8afb689b6e9a4203d82e
:10643800fa8afb68da6603e0fb689a6efb68da663c
:10644800012300e0002318462037bd4680bd90b5e3
:10645800c5b004af78607b689b7b002b40f09381cc
:106468007b681b6cc7f8ec30002387f8ff307b682b
:106478001b7a012b08d17b681b6c7a689a4229d158
:10648800012387f8ff3025e03cf04af8c7f8e80018
:106498007b681b6c7a689a4213d0d7f8ec309b7be8
:1064a800002b17d0d7f8ec301b6e1946d7f8e80048
:1064b800fdf76efe0346002b0cd0012387f8ff3052
:1064c80008e07b681b69c3f316027b681a66012320
:1064d80087f8ff3097f8ff30012b40f054810023f4
:1064e80087f8fd30002387f8fc30002387f8fb305d
:1064f8007b681b7a002b35d17b681b6c7a689a42c3
:1065080016d197f8fc305a1c87f8fc2007f58072e2
:106518001344012203f8282c97f8fc305a1c87f8fa
:10652800fc2007f580721344022203f8282c2fe080
:1065380097f8fc305a1c87f8fc2007f58072134442
:10654800052203f8282c97f8fc305a1c87f8fc2001
:1065580007f580721344222203f8282c012387f8b8
:10656800fb3015e097f8fc305a1c87f8fc2007f53b
:1065780080721344112203f8282c97f8fc305a1c17
:1065880087f8fc2007f580721344092203f8282ca9
:106598007b689b6c1846fdf725fe0346a7f8f83084
:1065a8007b689b6e9ab2b7f8f8301344a7f8f630b8
:1065b800b7f8f630b3f5487f0ad97b689b6e9bb273
:1065c800c3f54873a7f8f8304ff44873a7f8f630c6
:1065d800d7f8ec301b6ec7f8d4300023c7f8e43086
:1065e8003bf09effc7f8e4006d4b1b681b891a46f9
:1065f8006b4b1b685b8913446a4a82fb03121a447b
:106608001212db17d31a01331946d7f8e400fdf745
:106618008ffdc7f8e4007b68db7a012b0ad17b6821
:106628001a6e7b68db6b19461046fdf791fd034631
:10663800c7f8d430d7f8ec309c6e7b68b3f870306c
:1066480003f271231846fdf7cdfd03462344c7f82e
:10665800e0307b685b6c1846fdf7c4fd0246d7f84e
:10666800e030934208d997f8fb30002b04d0d7f8d4
:10667800e030c7f8f03006e07b685b6c1846fdf741
:10668800b1fdc7f8f000d7f8d430d7f8f0101846a5
:10669800fdf74efd0346c7f8d430d7f8d430d7f805
:1066a800e4101846fdf774fd0346002bebd1d7f82c
:1066b800d420b7f8f630013b19461046fdf738fdef
:1066c800c7f8dc00002387f8fe3049e0002387f88c
:1066d800d330012387f8d230d7f8d430bb60d7f84d
:1066e800dc30fb6097f8fe3007f58072134413f82e
:1066f800280cb7f8f81007f1d40207f10803029341
:1067080007f1d203019307f1d30300930b4679688d
:10671800fff73dfc97f8d31097f8d220d7f8d4307c
:1067280007f10800009303467868fff749fd034620
:1067380087f8fd3097f8fd30002b0cd07b681b6e76
:106748001946d7f8dc00fdf723fd0346002b0ed0d1
:10675800002387f8fd3097f8fe30013387f8fe30c4
:1067680097f8fe2097f8fc309a42afd300e000bfbc
:1067780097f8fd30002b03d17b6800229a7302e062
:106788007b6801229a737b689b7b002b14bf0123d3
:106798000023dbb2184607f58277bd4690bd00bfdf
:1067a80084b200203f5461d190b585b000af7860c5
:1067b80000237b8107f10a0207f10c0311461846f2
:1067c8003bf06efe7b68db7a012b1bd1fa687b6895
:1067d800db6b19461046fdf7abfc0346fb607b6894
:1067e8001a8f7b8913449bb27b817b8940f2e142fb
:1067f800934207d97b89a3f2e2439bb27b81fb6872
:106808000133fb60fc687b899b089bb21a467b6856
:10681800b3f8703013441846fdf7e4fc03461946f4
:106828002046fdf785fc02467b681a667b681c6e6d
:106838000021786802f0ebf9034619462046fdf777
:1068480077fc02467b681a667b681b7b002b05d1a8
:106858007b681b6e5a027b681a6103e07b681a6ebc
:106868007b681a617b6801229a7300bf1437bd46a2
:1068780090bd80b588b000af786037f095fb384b95
:106888001b68d3f8a032bb6137f0a8fb7b6893f88c
:106898004c30002b17d07b681b6c7b617b6993f8ad
:1068a800503003f00203002b0dd17868fef768fb27
:1068b8007b689b6a002b02d0786837f07ffc786889
:1068c80000f02cfb48e00023fb61b969786800f010
:1068d80032fa38617a683b699a420ad10023fb6030
:1068e800786800f0b0fef860f968786800f0c8f9d8
:1068f800f8617a683b699a422ed17a68fb699a42b4
:106908002ad17b681b7a012b08d1164b1b685a6861
:10691800144b1b6842f040025a6007e0114b1b6899
:106928001a68104b1b6842f040021a607b6893f8a3
:106938004d30012b10d17868fef722fb7b680222cc
:1069480083f84d20064b1b687a68127aa63279685c
:1069580043f8221000f0e1fe2037bd4680bd00bf9d
:1069680080b2002084b2002080b586b000aff86005
:10697800b9607a60fb68db7a012b29d107f1120232
:1069880007f11403114618463bf08afd7a69fb6843
:10699800db6b19461046fdf7cbfb03467b617b8a10
:1069a8001a46fb681b8f19461046fdf7c1fb0346c4
:1069b8009bb27b827b8a40f2e142934210d97b8a68
:1069c800a3f2e2439bb27b827b6901337b6107e0e0
:1069d80007f1120207f11403114618463bf060fd57
:1069e8007b69ba689a4204d17b8a40f29b429342ff
:1069f80003d97b68a3f239137b607b6840f271226c
:106a0800934204d8f868fff734ff012300e000231d
:106a180018461837bd4680bd80b588b000af78608d
:106a28007b68fb6100237b810023fb76fb6993f87d
:106a3800503023f00203dab2fb6983f8502007f1e3
:106a48000a0207f10c03114618463bf029fdfb69c1
:106a58001b7a012b08d1874b1b685a68854b1b682a
:106a680042f010025a6007e0824b1b681a68814b9b
:106a78001b6842f010021a60fb69db7a012b1bd1fc
:106a8800fa68fb69db6b19461046fdf751fb0346b4
:106a9800fb60fb691a8f7b8913449bb27b817b89de
:106aa80040f2e142934207d97b89a3f2e2439bb2c9
:106ab8007b81fb680133fb60f9687a89fb69b3f86d
:106ac8007230f86900f0f0fd0346fb76fb7e002b80
:106ad80040d0fb691b7a012b08d1664b1b685a68aa
:106ae800644b1b6842f020025a6007e0614b1b6848
:106af8001a68604b1b6842f020021a60fb691b7a17
:106b0800002b0bd0fb691b7a012b1ad1fb699b6cfc
:106b1800002b16d0fb695b7f002b12d0f869fef7bb
:106b28002ffafb699b6a002b02d0f86937f046fb05
:106b3800f86900f0f3f900220021012000f0f0fad2
:106b480094e0fb6900229a7300220021012000f0e2
:106b5800e7fa8be0fb691b6efa6811461846fdf7e9
:106b680007fb7861fb69b3f8703003f27123424a7e
:106b780082fb03121a441212db17d31a01331a4686
:106b88007b69934203d2f869fff773fe6ee0fb69f5
:106b98001b7a012b08d1374b1b685a68354b1b6889
:106ba80042f080025a6007e0324b1b681a68314b8a
:106bb8001b6842f080021a607869fdf73ffb0246c5
:106bc8007b899b089bb2d31a3b61fb69b3f8703091
:106bd8001a463b699b1a3b61fb683a691946f86992
:106be800fff7c2fe0346002b3fd1fa69fb69c3f8e1
:106bf8008420fb6978333969184630f06ffe1f4be3
:106c08001b68b3f8203303f59c731a463b6993421b
:106c18000dd91a4b1b68b3f820331a463b699b1ae7
:106c28003b61fb6990333969184630f057fef869c3
:106c3800fef7a6f9fb69042283f84d20f86902f0f3
:106c480067fbfb691b7a012b09d1fb695b6d002b84
:106c58000cd100220021012000f062fa06e0002297
:106c68000021002000f05cfa00e000bf2037bd469c
:106c780080bd00bf84b200203f5461d180b20020a3
:106c880080b582b000af786039603b68002b4dd08a
:106c98007b681b7a002b1cd13b681b7a012b01d126
:106ca8007b6844e07b689a7a3b689b7a9a4201d376
:106cb8007b683ce07868fef763f97b689b6a002b89
:106cc80002d0786837f07afa786800f027f93b68dc
:106cd8002de07b689b6c002b03d17b6800229a73a4
:106ce80022e07b685b7f83f00103dbb2002b03d0db
:106cf8007b6800229a7317e07b6893f8503003f0a2
:106d08000103002b03d07b6800229a730ce078689b
:106d1800fef736f97b689b6a002b02d0786837f05b
:106d28004dfa786800f0faf83b6800e07b6818468e
:106d38000837bd4680bd80b584b000af7860396043
:106d48003b68002b01d17b68ace00023fb733b68f8
:106d580093f84d30032b02d10123fb7312e03b68fb
:106d680093f84f3003f00403002b02d00123fb7388
:106d780008e07b689b6e1a463968786801f074fef3
:106d88000346fb73fb7b002b7fd07b681b7a002bb1
:106d98004ed13b681b7a012b15d13b6893f84d30d7
:106da800032b04d10021386837f031fa09e03b6839
:106db8009b6a002b02d0386837f000fa386800f078
:106dc800adf87b686ee03b681b7f002b05d0002187
:106dd800386837f01cfa7b6864e07b689a7a3b680d
:106de8009b7a9a4215d93b6893f84d30032b04d10e
:106df8000021386837f00bfa09e03b689b6a002be2
:106e080002d0386837f0daf9386800f087f87b681c
:106e180048e07868fef7b4f87b689b6a002b02d0dc
:106e2800786837f0cbf9786800f078f83b6839e093
:106e38007b689b6c002b03d17b6800229a7322e04d
:106e48007b685b7f83f00103dbb2002b03d07b6898
:106e580000229a7317e07b6893f8503003f001031f
:106e6800002b03d07b6800229a730ce07868fef749
:106e780087f87b689b6a002b02d0786837f09ef908
:106e8800786800f04bf83b680ce03b6893f84d30ad
:106e9800022b04d03b6893f84d30032b01d13b689b
:106ea80000e07b6818461037bd4680bd80b584b0c9
:106eb80000af78607b681b68fb60fb681a69fb6839
:106ec800c3f8ac20fb689b6a002b06d0fb689b6a62
:106ed800fa68126af9681046984700bf1037bd462d
:106ee80080bd80b584b000af78600b46fb707b68ce
:106ef8001b68fb60fb6893f84d30032b0ad1fb68d5
:106f0800db6a002b06d0fb68db6afa68126af91c98
:106f18001046984700bf1037bd4680bd80b584b085
:106f280000af78607b68fb60fb681b7a012b08d197
:106f38003e4b1b685a683d4b1b6842f008025a607a
:106f480007e03a4b1b681a68384b1b6842f0080286
:106f58001a60fb6893f84d30032b63d0fb6893f8f5
:106f68004d30022b1ad137f01ff8314b1b68fa68e5
:106f7800127aa63253f82230fa689a4207d12c4b7b
:106f88001b68fa68127aa632002143f82210284baf
:106f98001b680022c3f8a02237f020f8fb685b7f4b
:106fa80083f00103dbb2002b02d0fb6800229a7346
:106fb800fb68b3f870201d4b1b681b899a4219d0d7
:106fc8001a4b1b681a89fb68a3f87020184b1b68ba
:106fd800b3f82223fb68a3f87220154b1b68b3f89b
:106fe8002423fb68a3f87420104b1b685a89fb689c
:106ff800a3f87620fb68042283f84d20fb685b7faa
:10700800002b0fd0fb6893f84e3003f00103002be0
:1070180008d1f86800f0defff86800f0f5fff868be
:1070280001f00cf800bf1037bd4680bd84b20020c7
:1070380080b2002080b584b000af78603960374beb
:107048001b685a68354b1b6842f400625a603b68fb
:1070580000221a707b689b6d002b05d07b68fb6053
:107068003b6801221a7027e07b685b6d002b0bd010
:107078007b685b6dfb60fb6893f84d30012b1bd17f
:10708800f868fdf77dff17e07b68d3f8a830fb6050
:10709800fb68002b3ed0b4227968f86850f03effb8
:1070a800fa687b685a657a68fb689a657b6800228b
:1070b8009a65fb6800225a65fb68002b2bd0fb6899
:1070c80000225a77fb6800229a64fb6800229a73b0
:1070d800fb6800221a63fb68fa681a64fb680022de
:1070e80083f84d20fb68002283f84e20fb680022bd
:1070f80083f84f20fb6800229a73f868fdf7dafee0
:10710800fb6893f84f3043f00403dab2fb6883f866
:107118004f2000e000bf1037bd4680bd84b200207c
:1071280080b594b000af0346b9607a60fb73bb6862
:10713800002b4ed0bb6893f84f3003f00403002bac
:1071480023d0bb681a7a07f138031a6007f13803ad
:107158000433ba681a6007f1380308337a681a608a
:107168004bf008fc0346002b07d007f138030c222c
:107178005c4901203ef02bfbafe007f138030c22fd
:10718800584903203ef023fba7e0bb681a7a07f1b1
:107198002c031a6007f12c030433ba681a6007f14c
:1071a8002c0308337a681a604bf0e4fb0346002b83
:1071b80007d007f12c030c220e2100203ef007fb1c
:1071c8008be007f12c030c220e2102203ef0fffa7f
:1071d80083e0454b1a68fb7b134493f89432002be9
:1071e8007bd00023bb640c2387f84f3070e03e4b04
:1071f8001968fa7b97f94f0013465b0013449b000c
:10720800134403443833db000b445b687b647b6cba
:10721800002b02d07b6c9b68bb64bb6c002b50d0ee
:10722800bb6c5b7a012b4cd1bb6c93f84f3003f0ed
:107238000403002b22d007f12003fa7b1a6007f120
:1072480020030433ba6c1a6007f1200308337a6804
:107258001a604bf08ffb0346002b07d007f1200381
:107268000c22204901203ef0b2fa36e007f1200353
:107278000c221c4903203ef0aafa2ee007f1140361
:10728800fa7b1a6007f114030433ba6c1a6007f129
:10729800140308337a681a604bf06cfb0346002b22
:1072a80007d007f114030c220e2100203ef08ffabc
:1072b80013e007f114030c220e2102203ef087fa96
:1072c8000be097f94f30dbb2013bdbb287f84f3068
:1072d80097f94f30002b8adaffe700bf5037bd46d9
:1072e80080bd00bf0e01000180b2002080b592b0c1
:1072f80000af78600b46fb7007f10c0300221a60a0
:107308005a600023fb6200237b644ff0ff337b63ea
:10731800002387f83330002387f83230fb7803f0f6
:107328000103002b0ed09e4b1a6897f83330591c76
:1073380087f83310d2f8a8229b0007f148010b44c4
:1073480043f83c2cfb7803f01003002b0ed0944b31
:107358001a6897f83330591c87f83310d2f8b022de
:107368009b0007f148010b4443f83c2c002387f8a5
:10737800323045e197f832309b0007f14802134458
:1073880053f83c3cbb6297f832309b0007f1480247
:10739800134453f83c2c97f8323012689b0007f1dd
:1073a80048010b4443f83c2cbb6a9a687b689a42b4
:1073b80000f01681bb6a9b68fb62fb6a9b7b012b12
:1073c80040f00e81fb7803f01003002b06d0fb6a17
:1073d8009a7a7b689b7a9a4200d801e17b68db7acb
:1073e800012b09d17b681a6e7b68db6b1946104646
:1073f800fcf7aefe386402e07b681b6e3b64fb6af8
:10740800db7a012b09d1fb6a1a6efb6adb6b194622
:107418001046fcf79dfef86302e0fb6a1b6efb63f7
:10742800396cf86bfcf7b4fe0346002b31d0fb6acd
:107438005b6e1946f86bfcf77bfe78627b68b3f8e5
:107448007020584ba3fb0213d21a520813441b0a8c
:107458009bb2591cfb6ab3f87620524ba3fb02037c
:10746800d21a520813441b0a9bb201330b44194623
:10747800786afcf75dfe3862396a386cfcf788fe7a
:107488000346002b37d07b685a6e7b68da66fb6a46
:10749800d5e07b685b6e1946386cfcf749fef861ed
:1074a800fb6ab3f870203f4ba3fb0213d21a5208b1
:1074b80013441b0a9bb2591c7b68b3f87620394bde
:1074c800a3fb0203d21a520813441b0a9bb20133ce
:1074d8000b441946f869fcf72bfeb861b969f86bdb
:1074e800fcf756fe0346002b05d07b685a6e7b6876
:1074f800da66fb6aa3e0fb6ab3f87020294ba3fbaa
:107508000213d21a520813441b0a9bb2591c7b68f7
:10751800b3f87620234ba3fb0203d21a5208134474
:107528001b0a9bb201330b441946f86bfcf710fe9b
:10753800b8632ce0fb6a5b7f002b35d0fb6a5b6c81
:107548001846fcf74ffe03461946f86bfcf7f0fdaa
:10755800f863fb6ab3f87020124ba3fb0213d21a2c
:10756800520813441b0a9bb2591c7b68b3f8762057
:107578000c4ba3fb0203d21a520813441b0a9bb2fa
:1075880001330b441946f86bfcf7e2fdb863396c1c
:10759800b86bfcf7fdfd0346002bcbd105e000bf1f
:1075a80080b200207da8c2a200bfb96b386cfcf77e
:1075b800effd0346002b06d1b96b386cfcf7fdfdd7
:1075c8000346002b0cd0396cb86bfcf7d1fd786101
:1075d8007a697b6b9a4203d27b697b63fb6a7b6423
:1075e80097f832309b0007f14802134453f83c3cab
:1075f800002b7ff4bfae97f83230013387f8323072
:1076080097f8322097f833309a42e9d37b685b6e5b
:107618007a6b9a4205d27b685a6e7b68da667b6c15
:107628000de07b689b6e7a6b9a4203d27b687a6b1b
:10763800da6603e07b689a6e7b68da660023184690
:107648004837bd4680bd80b584b000af7860002360
:10765800fb737b681b7a002b0ad17b685b7f002b4e
:1076680006d07b689b6c002b02d10123fb7310e0d2
:107678007b681b7a012b0cd17b689b6c002b06d096
:107688007b685b7f83f00103dbb2002b01d0112301
:10769800fb73fb7b19467868fff728feb860bb6868
:1076a80018461037bd4680bd90b587b000aff8606a
:1076b800b9603b601346fb800023fb75fb681b6ebb
:1076c800b9681846fcf764fd0346002b08d1fb682f
:1076d8001b6eb9681846fcf770fd0346002b02d0f4
:1076e8000123fb7514e0fb889b089bb21a463b6894
:1076f800d418fb681b6eb9681846fcf739fd0346b9
:107708001846fcf79bfd03469c4201d30123fb75f9
:10771800fb7d18461c37bd4690bd80b500af4bf0c9
:1077280029f90346002b02d000f00af805e00023ef
:1077380000220f2102203ef04af80023184680bd9f
:1077480080b586b000af944b1b68d3f89832002bf5
:1077580008d1914b1a68904b1b68d2f89c22c3f849
:10776800a02207e08c4b1a688b4b1b68d2f8982232
:10777800c3f8a022884b1b68d3f8a0327b6143f082
:10778800ebfa0346002b07d1844bd3f8ac30c3f394
:107798008013dbb2012b20d17b691b7a012b08d126
:1077a8007f4b1b685a687e4b1b6842f400425a6044
:1077b80007e07b4b1b681a68794b1b6842f4004250
:1077c8001a607b699b6a002b02d0786936f0f6fc58
:1077d8007869fff7a3fb0023d9e07b69002b00f051
:1077e800d5807b6993f84d30022b40f0cf80002381
:1077f8007b800023fb74ba1c3b1d114618463af0e7
:107808004ffe7b69db7a012b1bd17a687b69db6bc6
:1078180019461046fcf78cfc03467b607b691a8f7f
:107828007b8813449bb27b807b8840f2e142934281
:1078380007d97b88a3f2e2439bb27b807b68013344
:107848007b6079687a887b69b3f874307869fff768
:107858002bff0346fb747b6993f84f3003f0040356
:10786800002b33d07b699b6dfb607b6993f84f30ad
:1078780003f00803002b29d0494b1b685a68484b72
:107888001b6842f480325a607b699b6a002b02d0e5
:10789800786936f093fc7869fff740fbfb6893f84a
:1078a8004d30022b02d1fff738ff04e07a6900213e
:1078b8000120fff735fc7b6993f84f3023f008036c
:1078c800dab27b6983f84f20002360e0324b1b68f3
:1078d800d3f8a432002b44d1fb7c83f00103dbb244
:1078e800002b3ed02c4b1b687a69c3f8a422786918
:1078f80001f047f87b691b6a2a4a13607b690322f7
:1079080083f84d20786901f08af87b691b7a012b8e
:1079180008d1234b1b685a68214b1b6842f400723c
:107928005a6007e01e4b1b681a681d4b1b6842f41f
:1079380000721a607b699b7a032b8cbf012300239a
:10794800fb72154b1b68d3f82c33002b06d0124b57
:107958001b68d3f82c33fa7a10469847786936f0c2
:1079680007fcfb7c002b11d00d4b1b681a680c4bd5
:107978001b6842f480721a607b699b6a002b02d0f4
:10798800786936f01bfc7869fff7c8fa00231846b7
:107998001837bd4680bd00bf80b2002000240141d9
:1079a80084b200200cb2002080b584b000af7860ab
:1079b8007b681b68fb60fb685b6a002b06d0fb6872
:1079c8005b6afa68126af9681046984700bf103770
:1079d800bd4680bd90b587b000af786039607b68e0
:1079e80093f84d30002b0fd13b68002b00f07d81c0
:1079f8003b687b617b691a787b689a727b691a7825
:107a08007b6883f8522070e17b6893f84d30032b34
:107a180040f06b815b4b1b68d3f83033002b04d0ec
:107a2800584b1b68d3f8303398477b6893f851203c
:107a38007b681a727b6893f852207b689a72514b64
:107a48001b687a68127aa63253f822307a689a420a
:107a580007d14c4b1b687a68127aa632002143f88a
:107a68002210484b1b68d3f8a0327a689a4204d196
:107a7800444b1b680022c3f8a0227b681b7a012ba9
:107a880008d1414b1b685a683f4b1b6842f480621f
:107a98005a6007e03c4b1b681a683b4b1b6842f472
:107aa80080621a607b68042283f84d200023fb73f0
:107ab8003b68002b14d03b683b613b691a787b68b4
:107ac8009a723b691a787b6883f852203b695b7825
:107ad800002b05d007f10f0319467868fff7aafabb
:107ae800284b1b680022c3f8a4227b685b7f002b0d
:107af80002d0786800f06efa224b1b68d3f89832ef
:107b0800002b08d11f4b1a681e4b1b68d2f89c2209
:107b1800c3f8a02207e01b4b1a681a4b1b68d2f85f
:107b28009822c3f8a022174b1b68d3f8a032002b69
:107b38000ad0144b1b68d3f8a03293f84d30022baf
:107b480002d1fff7eafd2ee00e4b1b6893f8943242
:107b5800002b04d0002200210020fdf797fb094be1
:107b68001b6893f89532002b1dd07b681b7a012b7c
:107b78000cd1054b1b685a68034b1b6842f48052b2
:107b88005a600be080b2002084b20020594b1b6879
:107b98001a68584b1b6842f480521a600022002170
:107ba8000120fff7bdfa7b68002b00f097807b6807
:107bb80093f8503043f00203dab27b6883f8502020
:107bc8007b6893f8503003f00103002b08d07b68e2
:107bd80093f8503023f00103dab27b6883f8502021
:107be8007b6893f84f3003f00103002b14d07b68b7
:107bf80093f84f3023f00103dab27b6883f84f2003
:107c08007b6800225a727868fdf78cfa00230022fc
:107c1800394901203df0dbfd7b685b7f83f0010380
:107c2800dbb2002b02d07b6800229a737b68b3f822
:107c38007020304b1b681b899a4219d02d4b1b684a
:107c48001a897b68a3f870202c4b1b68b3f8222391
:107c58007b68a3f87220294b1b68b3f824237b6840
:107c6800a3f87420234b1b685a897b68a3f87620f5
:107c78007b685b7f002b0cd07b6893f84e3003f059
:107c88000103002b05d1786800f0bef9786800f090
:107c9800d5f97b6893f84e3003f00103002b1dd013
:107ca8007b6893f84e3023f00103dab27b6883f8df
:107cb8004e207b689b6d002b02d17868fdf732fa65
:107cc8007b689b6d002b09d107f108037a681a605d
:107cd800002300220a4901203df079fd074b1c686a
:107ce80001f032fc034684f8343300bf1c37bd462c
:107cf80090bd00bf84b200200b01000180b20020bb
:107d08000901000180b58ab000aff860b960134678
:107d1800fb80fb68db7a012b10d1fb681a6efb68cd
:107d2800db6b19461046fcf713fa3862fb68db6b0d
:107d38001946b868fcf70cfab86002e0fb681b6edd
:107d48003b6236f031f9304b1b68d3f8b0327b62b6
:107d580036f044f951e036f027f97b6afb617b6a1b
:107d68001b687b6236f03af9fb699b68bb61bb69ab
:107d78009b7b012b41d1bb691b6e7b617a693b6a96
:107d88009a423ad1bb691b6e5a1cbb691a66bb6919
:107d98001b6e5a02bb691b69c3f308031a44bb690b
:107da8001a61bb691b6eb9681846fcf7e1f903460e
:107db8001846fcf743fa3861fb889b089bb21a46c1
:107dc8003b699b1a3b61bb69b3f8703003f27123be
:107dd8001a463b69934210d3bb69b3f870301a4610
:107de8003b699b1a3b61ba69bb69c3f88420bb69cc
:107df8007833396918462ff071fd7b6a002baad1b8
:107e080000bf2837bd4680bd80b2002090b589b03c
:107e180000af78607b681b7a012b02d10123fb61dc
:107e280010e06a4b1b681b891a46684b1b685b8904
:107e38001344674a82fb03121a441212db17d31a3f
:107e48000133fb617b681b7b012b67d10023fb7629
:107e5800fb7e002b06d07b689b6a002b02d07868db
:107e680036f0acf9fb7e0133fb767b681c6e7b68d1
:107e78005b6c1846fcf7b6f9034619462046fcf732
:107e880057f902467b681a667b681a6e7b681a6126
:107e98007b68db7a012b29d107f10e0207f1100369
:107ea800114618463af0fcfa3a697b68db6b1946ca
:107eb8001046fcf73df903463b61fb891a467b688f
:107ec8001b8f19461046fcf733f903469bb2fb811a
:107ed800fb8940f2e142934210d9fb89a3f2e243c5
:107ee8009bb2fb813b6901333b6107e007f10e025e
:107ef80007f11003114618463af0d2fa3b69f969be
:107f08001846fcf715f978617b681b6e7969184685
:107f1800fcf73ef90346002b9ad146e07b681b7bb1
:107f2800002b42d10023fb76fb7e002b06d07b681a
:107f38009b6a002b02d0786836f040f9fb7e01334b
:107f4800fb767b681c6e7b685b6c1846fcf74af90d
:107f5800034619462046fcf7ebf802467b681a668a
:107f68007b681b6e5a027b681b69c3f308031a44bb
:107f78007b681a617b68db7a002b07d107f10e0258
:107f880007f11003114618463af08afa3b69f96975
:107f98001846fcf7cdf878617b681b6e796918463e
:107fa800fcf7f6f80346002bbed17b681b7a002b42
:107fb80005d13b69fa8919467868fff7a3fe7b6803
:107fc80001229a7300bf2437bd4690bd84b20020b9
:107fd8003f5461d180b582b000af78607b689b6cfc
:107fe800002b0dd17b681b6c7a689a4208d17b689c
:107ff80000229a737868fff709ff786801f088f91a
:1080080000bf0837bd4680bd80b582b000af78603c
:108018007b689b6c002b04d17b681b6c7a689a4246
:1080280008d07b6800229a737868fef710fa78689f
:1080380001f06ef900bf0837bd4680bd80b58cb031
:1080480000af786000237b6100237b827b68db7a4a
:10805800012b29d107f1120207f114031146184622
:108068003af01efa7a697b68db6b19461046fcf712
:108078005ff803467b617b8a1a467b681b8f19462b
:108088001046fcf755f803469bb27b827b8a40f288
:10809800e142934210d97b8aa3f2e2439bb27b82ee
:1080a8007b6901337b6107e007f1120207f11403d2
:1080b800114618463af0f4f97b689b7b002b40f098
:1080c8008e807b681b6c3b623b6a1b6efb627b6825
:1080d8001b6c7a689a421fd00ae03b6a5b6c1846b0
:1080e800fcf780f803461946f86afcf721f8f862ad
:1080f8007b691946f86afcf74bf80346002becd16c
:108108007b685b6c1846fcf76df803461946f86afd
:10811800fcf70ef8b86215e07b685b6c1846fcf754
:1081280061f803461946f86afcf702f8b8627b68fa
:108138001b7a012b06d17b689b6c002b02d07b68d5
:10814800ba6a1a667b691946b86afcf711f80346d9
:108158001846fcf773f8f8617b8a9b089bb21a46ad
:108168007b68b3f8703013441a46fb699b1afb61ad
:108178007b681b7a012b08d1774b1b685a68764bb2
:108188001b6842f400525a6007e0734b1b681a6878
:10819800714b1b6842f400521a607a687b68c3f816
:1081a80084207b687833f96918462ff097fb6b4b6e
:1081b8001b68b3f820331a46fb69934240f2c78024
:1081c800664b1b68b3f820331a46fb699b1afb61a0
:1081d8007b689033f96918462ff080fbb7e07b681d
:1081e8001b6e7a6911461846fbf7c2ff034618460c
:1081f800fcf724f878627b6a002b06d07b8a9b0800
:108208009bb21a467b6a9b1a7b627b68b3f8703014
:1082180003f271231a467b6a93421ad27b685b6d1c
:10822800002b0bd07b685b6dbb61bb6993f84f304b
:1082380043f00803dab2bb6983f84f207868fcf78b
:1082480015fe7b681b7a002279681846fef768ffde
:108258007de07b68b3f870301a467b6a9b1a7b62b4
:108268007a687b68c3f884207b68db7a012b29d184
:1082780007f10a0207f10c03114618463af010f903
:10828800fa687b68db6b19461046fbf751ff03461b
:10829800fb607b891a467b681b8f19461046fbf7e3
:1082a80047ff03469bb27b817b8940f2e1429342c0
:1082b80010d97b89a3f2e2439bb27b81fb6801332f
:1082c800fb6007e007f10a0207f10c0311461846a4
:1082d8003af0e6f87a69fb689a4203d17b89b3f5ec
:1082e800966f03d37b6aa3f59c737b627b681b7aca
:1082f800012b08d1184b1b685a68174b1b6842f4ae
:1083080000525a6007e0144b1b681a68124b1b682e
:1083180042f400521a607b687833796a18462ff065
:10832800ddfa0e4b1b68b3f820331a467b6a93427a
:108338000dd90a4b1b68b3f820331a467b6a9b1a7f
:108348007b627b689033796a18462ff0c7fa00bfc2
:108358003037bd4680bd00bf84b2002080b2002007
:1083680080b58ab004af78600023fb7500233b61b9
:108378000023fb600023bb607b681b7a012b0ed1b6
:108388007b6893f84d3002937b680193464b0093ca
:10839800022302228521ec2034f026f90de07b68c7
:1083a80093f84d3002937b680193404b009302236e
:1083b80002228621ec2034f017f935f0f5fd7b68b0
:1083c80093f84d30012b35d1394b19687b681b7aee
:1083d8001a467b689b7a184613465b0013449b0039
:1083e800134403443833db000b445b683b611de0f6
:1083f8003b69fb603b691b683b61fb689b68bb6032
:10840800ba687b689a4211d17868fcf7b9fd7b6835
:1084180093f84e3043f00403dab27b6883f84e20b9
:108428007868fcf77ffe0123fb7535e03b69002b7c
:10843800ded131e07b6893f84d30022b04d07b68a5
:1084480093f84d30032b0fd17b6893f84e3043f0ef
:108458000503dab27b6883f84e200121786835f08d
:10846800d6fe0023fb7517e07b68783318462ff09b
:10847800f3fa7b68903318462ff0eefa7868fcf729
:1084880051fe7b6893f84e3043f00603dab27b68fe
:1084980083f84e200123fb7535f0a0fdfb7d1846bf
:1084a8001837bd4680bd00bf484b05016c4b050120
:1084b80080b2002080b588b000af786042f022fe1c
:1084c8007b681b683b613b691b68fb61fb69bb619f
:1084d8001ce0bb6993f84e3003f00403002b12d163
:1084e800424b1a68414b1b6893f8ba32ae339b0073
:1084f8001344ba695a603d4b1b6893f8ba2201329b
:10850800d2b283f8ba22bb691b68bb61bb69002b76
:10851800dfd135e0fb69bb61fb691b68fb61bb69a7
:1085280093f84e3003f00403002b29d1b869fff704
:1085380017ff0346012b0cd12c4b1b6893f8bb2269
:108548000132d2b283f8bb22ba6900210120fef7ba
:10855800e7fdbb695b6dfb60fb68002b02d0f86828
:10856800fff7fefebb69d3f8a830bb60bb68002be1
:1085780002d0b86835f0cafeb969032045f0b8fee4
:10858800fb69002bc6d1786800f002fb174b1b680b
:1085980093f8bb22154b1b6893f8ba329a4220d144
:1085a8000023fb750ce0114b1a68fb7dae339b0072
:1085b80013445b68184635f055fefb7d0133fb75a7
:1085c8000a4b1b6893f8bb32fa7d9a42ebd3074bf0
:1085d8001b68002283f8bb22044b1b68002283f827
:1085e800ba2200bf2037bd4680bd00bf80b2002040
:1085f80080b582b000af1b4b1b6893f8bb220132d9
:10860800d2b283f8bb22174b1b6893f8bb22154bd9
:108618001b6893f8ba329a4220d10023fb710ce010
:10862800104b1a68fb79ae339b0013445b681846fd
:1086380000f01af8fb790133fb710a4b1b6893f8b9
:10864800bb32fa799a42ebd3064b1b68002283f8b7
:10865800bb22044b1b68002283f8ba2200bf0837ec
:10866800bd4680bd80b2002080b584b002af78607e
:108678007b681b6b002b10d07b680193094b009320
:10868800022302228721ec2033f0aeff7b681b6bac
:108698007a68126a79681046984700bf0837bd465d
:1086a80080bd00bf944b050180b582b000af1b4b65
:1086b8001b6893f8ed220132d2b283f8ed22174bf2
:1086c8001b6893f8ed22154b1b6893f8ec329a421d
:1086d8001fd10023fb710be0104b1b68fa79bc32e9
:1086e80053f82230184600f01bf8fb790133fb7170
:1086f8000a4b1b6893f8ed32fa799a42ecd3074b90
:108708001b68002283f8ed22044b1b68002283f8c3
:10871800ec2200bf0837bd4680bd00bf80b20020f4
:1087280080b584b002af78607b685b6b002b10d09b
:108738007b680193094b0093022302228821ec20d5
:1087480033f052ff7b685b6b7a68126a002110462f
:10875800984700bf0837bd4680bd00bfa84b05013c
:1087680080b58cb002aff860b9607a60fb70fb68c6
:108778001b68bb61bb691b687b627b6a3b6214e058
:10878800514b1b68504a126892f8ec22bc32396a85
:1087980043f822103b6a1b683b624b4b1b6893f8fb
:1087a800ec220132d2b283f8ec223b6a002be7d1eb
:1087b80045e07b680193454b0093022302228921ff
:1087c800ec2033f011ff7b6a3b627b6a1b687b629b
:1087d800bb68dab23b6a83f85c207b689ab23b6a72
:1087e800a3f85e2035f0e0fb3b6a93f84d30042b8c
:1087f80004d03b6a93f84d30012b0ed13b6a00221e
:108808005a72386afcf78efc2f4b1b6893f8ed22de
:108818000132d2b283f8ed220fe03b6a93f84f3071
:1088280043f00103dab23b6a83f84f20fb78002b50
:1088380003d00421386a35f0eafc35f0cffb7b6ab7
:10884800002bb6d14af096f80346002b0bd007f15f
:108858001403ba691a6007f1140304221c490120a1
:108868003cf0b5ff02e0f86800f092f9164b1b687f
:1088780093f8ed22144b1b6893f8ec329a421fd1ff
:108888000023fb770be0104b1b68fa7fbc3253f8d0
:108898002230184635f000fdfb7f0133fb770a4b89
:1088a8001b6893f8ed32fa7f9a42ecd3064b1b68ab
:1088b800002283f8ed22044b1b68002283f8ec2287
:1088c80000bf2837bd4680bd80b20020bc4b0501e3
:1088d8000d01000180b586b000af78607b681b6829
:1088e8003b610023fb603b691b687b6112e07b698d
:1088f800fb607b691b687b61fb6801225a72fb681d
:10890800002283f85c20fb680022a3f85e20f86848
:10891800fcf7a6fb7b69002be9d1786800f038f9f1
:1089280000bf1837bd4680bd80b582b000af786003
:108938007b681b6a1b79042b04d07b681b6a1b7934
:10894800052b0fd17b681b6a1b79042b02d13af0e7
:108958000ff807e07b68da6b7b681b8f19461046b7
:1089680039f0e8ff00bf0837bd4680bd80b582b04a
:1089780000af78607868fff7d7ff00bf0837bd46bb
:1089880080bd80b582b000af78607868fff7eefff1
:1089980000bf0837bd4680bd80b582b000af7860a3
:1089a8007b685b7b012b0ad17b685b695a007b681b
:1089b8005a667b689b695a007b689a6613e07b68f5
:1089c8005b7b002b0fd17b685b691846fbf70afcc1
:1089d80002467b685a667b689b691846fbf702fc6f
:1089e80002467b689a667b681b7b002b05d17b68f7
:1089f8001b695a0a7b681a660de07b681b7a002b94
:108a080009d17b68db7a012b05d17b681b69c3f32d
:108a180016027b681a6600bf0837bd4680bd80b560
:108a280082b000af78607b685b7b012b06d17b68e6
:108a3800db6e5a087b68c3f8b0200ce07b685b7b70
:108a4800002b08d17b68db6e1846fbf7f7fb024664
:108a58007b68c3f8b0207b681a697b68c3f8ac20d0
:108a680000bf0837bd4680bd80b58ab000aff8604a
:108a7800b9607a600023fb77fb681b6e7b62bb687a
:108a88001b6e3b62fb68db7a012b08d1fb681a6e10
:108a9800fb68db6b19461046fbf75afb7862bb682c
:108aa800db7a012b08d1bb681a6ebb68db6b1946f1
:108ab8001046fbf74dfb38627968786afbf738fb9c
:108ac800b861bb68da6e3b6a1a441b4b1b681b898a
:108ad8001946194b1b685b890b44184981fb030134
:108ae80019440912db17cb1a13440133c3f31603d5
:108af8007b61114b1b681b891a460f4b1b685b89ee
:108b080013440e4a82fb03121a441212db17d31abb
:108b180001331946386afbf71bfb38617b693a69f0
:108b2800b969786a00f00cf80346fb77fb7f1846b2
:108b38002837bd4680bd00bf84b200203f5461d1b4
:108b480080b586b000aff860b9607a603b600023fa
:108b5800fb757968f868fbf71bfb0346002b09d007
:108b6800b9687868fbf714fb0346002b0bd0012388
:108b7800fb7508e03968f868fbf70afb0346002b29
:108b880001d00123fb75fb7d18461837bd4680bd13
:108b980080b584b000af78607b681b68fb60f868bc
:108ba80035f08afc00bf1037bd4680bd80b485b063
:108bb80000af786039600ce07b683a68b3fbf2f28a
:108bc800396801fb02f29b1afb603b687b60fb681b
:108bd8003b603b68002befd17b6818461437bd46d5
:108be8005df8047b704790b583b000af786039605a
:108bf8007b683a6802fb03f439687868fff7d6ffa8
:108c08000346b4fbf3f318460c37bd4690bd80b558
:108c1800d8b000af3b1d18603b46196007f18c03c4
:108c2800c7f850313b1db4221968d7f850014ff0ee
:108c380075f93b461b68002b04d0d7f850313a46eb
:108c480012685a64002387f85f310023c7f84c3153
:108c5800002387f84b31002387f85731002387f822
:108c68004a31002387f84931002387f85631002319
:108c780087f85531d7f850311b6ec7f844310023b7
:108c880087f84331d7f850315b6c002b02d197f845
:108c98004331b4e05c4b1b68d3f8a832c7f85831ad
:108ca8002de0d7f858319b68c7f84c313b1dd7f8f1
:108cb8004c211b689a421dd0d7f84c319b6c002b75
:108cc80018d1d7f84c311b6cd7f84c219a4211d1e6
:108cd800d7f84c315b6c002b0cd097f85f2107f16b
:108ce8000c03d7f84c1143f8221097f85f31013381
:108cf80087f85f31d7f858311b68c7f85831d7f86b
:108d08005831002bcdd197f85f3187f8563197f855
:108d1800563187f84931002387f85f315ee097f8cc
:108d280055310a2b0dd9d7f850311b6ed7f844119d
:108d38001846fbf71dfa034687f8433197f8433185
:108d48005de097f85f2107f10c0353f822301946cc
:108d5800d7f8500100f05af8034687f84a3197f8d7
:108d68004a31002b03d097f85f3187f8573197f8cd
:108d78005f31013387f85f3197f85f2197f8493100
:108d88009a4202d1002387f85f3197f85631013ba8
:108d980087f8563197f85631002b1ad197f84a318f
:108da800002b16d097f84931013b87f8563197f8d0
:108db800573187f84b3197f84b31013387f85f31da
:108dc80097f85f2197f849319a4202d1002387f832
:108dd8005f3197f85531013387f8553197f8563197
:108de800002b9cd1d7f850311b6ed7f84411184688
:108df800fbf7bef9034687f8433197f84331184625
:108e080007f5b077bd4680bd80b2002090b593b01d
:108e180000af78603960002387f84730022387f86d
:108e280046303b68002b02d197f8473066e27b68f2
:108e38005a6c3b685b6c9a420ed97b685b6c3a68eb
:108e4800526cb3fbf2f102fb01f29b1a002b11d119
:108e5800012387f846300de03b685b6c7a68526cfa
:108e6800b3fbf2f102fb01f29b1a002b02d10123a2
:108e780087f8463097f84630022b21d17b685a6c28
:108e88003b685b6c19461046fff7adfe78627b685d
:108e98005b6c7a6ab2fbf3f387f845303b685b6c2e
:108ea8007a6ab2fbf3f387f8233097f84530092b39
:108eb80006d997f82330092b02d9002387f84630c2
:108ec80097f84630002b00f017827b681b6e3b64d6
:108ed8003b681b6efb637b68db7a012b08d17b68e0
:108ee8001a6e7b68db6b19461046fbf731f938645c
:108ef8003b68db7a012b08d13b681a6e3b68db6b59
:108f080019461046fbf724f9f86397f84630012b09
:108f180040f0b480f96b386cfbf73af90346002b44
:108f280026d03b685b6c1846fbf75cf9f861b84bd8
:108f38001b681b891a46b64b1b685b891344b54ae4
:108f480082fb03121a441212db17d31a1a46fb6962
:108f58009b1a013bbb61396cf86bfbf7f9f80246c9
:108f6800bb69934204d8f969f86bfbf7f1f8f86329
:108f78003b68b3f87020a84ba3fb0213d21a52081f
:108f880013441b0a9bb201331946f86bfbf7e0f850
:108f9800b8633b685b6e1946f86bfbf7c9f87863f2
:108fa8003b68b3f876209c4ba3fb0213d21a5208f5
:108fb80013441b0a9bb201331946786bfbf7b8f8c8
:108fc80038637b68b3f87020934ba3fb0213d21a63
:108fd800520813441b0a9bb201331946386cfbf73d
:108fe800b7f878617b685b6e1946386cfbf7a0f8b8
:108ff80038617b68b3f87620874ba3fb0213d21a3b
:10900800520813441b0a9bb2013319463869fbf70f
:109018008ff8f8603b6bba6bf9687869fff790fdd9
:109028000346002b00f06881396bf868fbf7b0f84d
:109038000346002b05d0396c386bfbf789f8f862ca
:1090480004e0396cf868fbf783f8f8627b681a6efd
:10905800fb6a033319461046fbf76af802467b6839
:109068001a667b6893f84f3043f00203dab27b68e4
:1090780083f84f20012387f847303de197f84630c1
:10908800022b40f03981002387f82b30002387f822
:109098002a303b68b3f870205f4ba3fb0213d21a47
:1090a800520813441b0a9bb201331946f86bfbf7ad
:1090b8004ff8b8633b685b6e1946f86bfbf738f8f6
:1090c80078633b68b3f87620534ba3fb0213d21a9c
:1090d800520813441b0a9bb201331946786bfbf7fd
:1090e80027f8386301e197f82b30102b01d90023ba
:1090f80004e17b681c6e7b685b6c97f82a2002fb96
:1091080003f31846fbf76ef8034619462046fbf7ab
:109118000ff838647b68b3f870203f4ba3fb021349
:10912800d21a520813441b0a9bb201331946386cf1
:10913800fbf70ef878617b685b6e1946386cfaf7b6
:10914800f7ff38617b68b3f87620334ba3fb021333
:10915800d21a520813441b0a9bb2013319463869c4
:10916800faf7e6fff8604ae0796b386cfbf700f82d
:109178000146274b1b681b891a46254b1b685b89d0
:109188001344244a82fb03021a441212db17d31a2f
:109198000133994242d93b685b6c1846fbf722f8c9
:1091a80003461946f86bfaf7c3fff8633b68b3f850
:1091b8007020194ba3fb0213d21a520813441b0a3e
:1091c8009bb201331946f86bfaf7c2ffb8633b68e4
:1091d8005b6e1946f86bfaf7abff78633b68b3f838
:1091e80076200d4ba3fb0213d21a520813441b0a14
:1091f8009bb201331946786bfaf79aff3863396cda
:10920800786bfaf7c5ff0346002badd107e000bf26
:1092180084b200203f5461d17da8c2a200bf3b6b3d
:10922800ba6bf9687869fff78bfc0346002b52d0bc
:10923800344b1b681b891a46324b1b685b891344e5
:10924800314a82fb03121a441212db17d31a013374
:109258001946786bfaf76cff0346396c1846faf72b
:1092680087ff0346da1c7b681b6e1a447b681a6604
:10927800012387f84730002387f82a303b681b6ea4
:10928800fb633b68b3f87020204ba3fb0213d21a90
:10929800520813441b0a9bb201331946f86bfaf7bc
:1092a80057ffb8633b685b6e1946f86bfaf740ffe7
:1092b80078633b68b3f87620144ba3fb0213d21ae9
:1092c800520813441b0a9bb201331946786bfaf70c
:1092d8002fff386304e097f82a30013387f82a30e3
:1092e80097f82b30013387f82b3097f82a2097f816
:1092f80045309a42fff4f7ae97f8473018464c3796
:10930800bd4690bd84b200203f5461d17da8c2a261
:1093180080b584b000af78600023fb607b68db7a9f
:10932800012b09d17b681a6e7b68db6b19461046e6
:10933800faf70efff86002e07b681b6efb60104bcb
:109348001b68d3f83833002b05d10d4b1b68fa681e
:10935800c3f838230fe00a4b1b68d3f83833194693
:10936800f868faf715ff0346002b04d0044b1b6876
:10937800fa68c3f8382300bf1037bd4680bd00bf68
:1093880080b2002080b582b000af786039607b6819
:109398001b7a012b08d12b4b1b685a68294b1b6879
:1093a80042f400325a6007e0264b1b681a68254bc6
:1093b8001b6842f400321a603b681b7803f0010313
:1093c800dbb2002b19d03b685a687b685a617b680e
:1093d8005b7b012b05d17b685b695a007b685a6609
:1093e8000be07b685b7b002b07d17b685b691846c9
:1093f800faf7f8fe02467b685a663b681b7803f06a
:109408000203dbb2002b19d03b689a687b689a612b
:109418007b685b7b012b05d17b689b695a007b6865
:109428009a660be07b685b7b002b07d17b689b69a6
:109438001846faf7d7fe02467b689a6600bf0837d7
:10944800bd4680bd84b2002080b584b000af002343
:10945800fb600023bb6000237b6034f0a5fd154b47
:109468001b68d3f88031bb60bb68fb60bb687b605e
:109478007b68002b14d07b681b68002b05d07b68a9
:109488001b687a6852685a6005e00a4b1b687a685c
:109498005268c3f884217b685b687a6812681a602e
:1094a800bb681b68bb6034f099fdfb681846103731
:1094b800bd4680bd80b2002080b586b000af786020
:1094c8000023fb747b68002b38d01e4b1b68d3f835
:1094d80080317b617b68fb607b681b687b6034f054
:1094e80063fd09e07a69fb689a4202d10123fb74a3
:1094f80005e07b691b687b617b69002bf2d1fb7cf3
:10950800002b13d1fb6800221a600e4b1b68d3f89e
:109518008421fb685a600b4b1b68d3f88431fa68c6
:109528001a60084b1b68fa68c3f88421054b1b684e
:10953800d3f880317b6134f051fd00e000bf18376b
:10954800bd4680bd80b2002080b400af1a4b1b68b6
:10955800d3f89832002b01d0002328e0164b1b6863
:10956800d3f89c32002b01d0002320e0124b1b685b
:1095780093f89432002b01d0002318e00e4b1b689f
:1095880093f89532002b01d0002310e00a4b1b689a
:10959800d3f8a432002b01d0002308e0064b1b6847
:1095a80093f82833002b01d0002300e0012318464c
:1095b800bd465df8047b704780b2002080b483b05c
:1095c80000af7860054b1b687a68c3f82c2300bf8e
:1095d8000c37bd465df8047b704700bf80b20020a1
:1095e80080b483b000af7860054b1b687a68c3f815
:1095f800302300bf0c37bd465df8047b704700bfc1
:0496080080b200200c
:020000040000fa
:020000040100f9
:10960c0080b588b002aff860b9607a607b807a88e8
:10961c007b8800937b68b968f86830f024fa0346bd
:10962c00fb75fb7d83f00103dbb25bb21846183788
:10963c00bd4680bd80b584b000af78600223fb814d
:10964c0000237b73094b00221a70084b00225a70be
:10965c00fb89074a05497868fff7d2ff03467b73fd
:10966c0097f90d3018461037bd4680bd0400002018
:10967c006400002080b586b000aff8600b467a60bd
:10968c007b810323fb8200237b757b891b0a9bb2a6
:10969c00dbb203f00f03dbb23033dab20d4b1a70ce
:1096ac007b89dab20b4b5a700a4b00229a70fb8af8
:1096bc00094a0849f868fff7a3ff03467b75064b78
:1096cc009a787b681a7097f9153018461837bd468a
:1096dc0080bd00bf040000206400002080b584b071
:1096ec0000af78600b467b8013467b700323fb81b5
:1096fc0000237b737b881b0a9bb2dbb203f00f0346
:10970c00dbb22033dab20b4b1a707b88dab2094b1e
:10971c005a70084a7b789370fb89074a0549786828
:10972c00fff76eff03467b7397f90d301846103721
:10973c00bd4680bd040000206400002080b588b0c8
:10974c0000aff8600b467a607b810623bb83002355
:10975c00fb767b891b0a9bb2dbb203f00f03dbb2f7
:10976c003033dab21a4b1a707b89dab2184b5a7052
:10977c00bb8b184a1649f868fff742ff0346fb7685
:10978c0097f91b30002b02d097f91b301ce07b683b
:10979c0000221a600223fb7711e0fb7f0d4ad35c99
:1097ac007b617b681a68fb7f023bdb00796901fafd
:1097bc0003f31a447b681a60fb7f0133fb77fb7f52
:1097cc00052bead997f91b3018462037bd4680bdca
:1097dc00040000206400002080b586b000aff86063
:1097ec000b467a607b810623bb820023fb747b894a
:1097fc001b0a9bb2dbb203f00f03dbb22033dab2ed
:10980c00124b1a707b89dab2104b5a700023fb751d
:10981c000be0fb7ddb007a68da40fb7d0233d1b2d2
:10982c000a4ad154fb7d0133fb75fb7d032bf0d928
:10983c00bb8a074a0549f868fff7e2fe0346fb744a
:10984c0097f9133018461837bd4680bd0400002028
:10985c006400002080b588b000aff8600b467a60d9
:10986c007b810423bb830023fb767b891b0a9bb281
:10987c00dbb203f00f03dbb23033dab21b4b1a70de
:10988c007b89dab2194b5a70bb8b194a1749f868a5
:10989c00fff7b6fe0346fb7697f91b30002b02d080
:1098ac0097f91b301ee07b6800221a800223fb779d
:1098bc0013e0fb7f0e4ad35c7b617b681a88fb7fcd
:1098cc00023bdb00796901fa03f39bb213449ab2b1
:1098dc007b681a80fb7f0133fb77fb7f032be8d976
:1098ec0097f91b3018462037bd4680bd0400002078
:1098fc006400002080b584b000af78600b467b809c
:10990c0013463b800423bb810023fb727b881b0a1c
:10991c009bb2dbb203f00f03dbb22033dab2134b92
:10992c001a707b88dab2114b5a700023fb730be070
